{"contracts/VotingApp.sol":{"VotingApp":{"abi":[{"inputs":[],"stateMutability":"nonpayable","type":"constructor"},{"anonymous":false,"inputs":[{"indexed":false,"internalType":"uint256","name":"","type":"uint256"}],"name":"LogNumber","type":"event"},{"inputs":[{"internalType":"uint256","name":"","type":"uint256"}],"name":"activePolls","outputs":[{"internalType":"uint256","name":"","type":"uint256"}],"stateMutability":"view","type":"function"},{"inputs":[{"internalType":"string","name":"name","type":"string"},{"internalType":"string","name":"desc","type":"string"},{"internalType":"uint256","name":"end","type":"uint256"},{"internalType":"string[]","name":"options","type":"string[]"}],"name":"createPoll","outputs":[{"internalType":"uint256","name":"","type":"uint256"}],"stateMutability":"payable","type":"function"},{"inputs":[],"name":"listActive","outputs":[{"components":[{"internalType":"uint256","name":"index","type":"uint256"},{"internalType":"string","name":"name","type":"string"}],"internalType":"struct VotingApp.IndexWithName[]","name":"","type":"tuple[]"}],"stateMutability":"view","type":"function"},{"inputs":[{"internalType":"uint256","name":"from","type":"uint256"},{"internalType":"uint256","name":"limit","type":"uint256"}],"name":"listAll","outputs":[{"components":[{"internalType":"uint256","name":"index","type":"uint256"},{"internalType":"string","name":"name","type":"string"}],"internalType":"struct VotingApp.IndexWithName[]","name":"","type":"tuple[]"}],"stateMutability":"view","type":"function"},{"inputs":[],"name":"removeExpired","outputs":[{"internalType":"uint64","name":"","type":"uint64"}],"stateMutability":"payable","type":"function"},{"inputs":[{"internalType":"uint256","name":"pollNumber","type":"uint256"}],"name":"viewPoll","outputs":[{"components":[{"internalType":"string","name":"name","type":"string"},{"internalType":"string","name":"description","type":"string"},{"internalType":"uint256","name":"createdTime","type":"uint256"},{"internalType":"uint256","name":"endTime","type":"uint256"},{"components":[{"internalType":"uint256","name":"_value","type":"uint256"}],"internalType":"struct Counters.Counter","name":"totalVoteCount","type":"tuple"}],"internalType":"struct VotingApp.PollView","name":"","type":"tuple"},{"components":[{"internalType":"string","name":"optionName","type":"string"},{"components":[{"internalType":"uint256","name":"_value","type":"uint256"}],"internalType":"struct Counters.Counter","name":"voteCount","type":"tuple"}],"internalType":"struct VotingApp.Option[]","name":"","type":"tuple[]"}],"stateMutability":"view","type":"function"},{"inputs":[{"internalType":"uint256","name":"pollId","type":"uint256"},{"internalType":"uint256","name":"selectedOption","type":"uint256"}],"name":"vote","outputs":[{"components":[{"internalType":"string","name":"optionName","type":"string"},{"components":[{"internalType":"uint256","name":"_value","type":"uint256"}],"internalType":"struct Counters.Counter","name":"voteCount","type":"tuple"}],"internalType":"struct VotingApp.Option[]","name":"","type":"tuple[]"}],"stateMutability":"payable","type":"function"}],"evm":{"bytecode":{"linkReferences":{},"object":"608060405234801561001057600080fd5b506040518060200160405280600081525060046000820151816000015590505061248b8061003f6000396000f3fe6080604052600436106100705760003560e01c8063b384abef1161004e578063b384abef1461011f578063c08d611a1461014f578063c8b61c751461016d578063db25b407146101ab57610070565b8063183643b4146100755780637d66c097146100b257806389e63a15146100ef575b600080fd5b34801561008157600080fd5b5061009c60048036038101906100979190611398565b6101d6565b6040516100a99190611576565b60405180910390f35b3480156100be57600080fd5b506100d960048036038101906100d49190611598565b6103ca565b6040516100e691906115d4565b60405180910390f35b610109600480360381019061010491906116aa565b6103ee565b60405161011691906115d4565b60405180910390f35b61013960048036038101906101349190611398565b610923565b604051610146919061188e565b60405180910390f35b610157610c63565b60405161016491906118d3565b60405180910390f35b34801561017957600080fd5b50610194600480360381019061018f9190611598565b610d33565b6040516101a292919061196b565b60405180910390f35b3480156101b757600080fd5b506101c061102b565b6040516101cd9190611576565b60405180910390f35b60606101e2600461119d565b831115610224576040517f08c379a000000000000000000000000000000000000000000000000000000000815260040161021b90611a25565b60405180910390fd5b6000829050610233600461119d565b838561023f9190611a74565b11156102525761024f600461119d565b90505b60008167ffffffffffffffff81111561026e5761026d611aa8565b5b6040519080825280602002602001820160405280156102a757816020015b6102946112f6565b81526020019060019003908161028c5790505b50905060008590505b828110156103be5760405180604001604052806001836102d09190611a74565b81526020016000806001856102e59190611a74565b8152602001908152602001600020600001805461030190611b06565b80601f016020809104026020016040519081016040528092919081815260200182805461032d90611b06565b801561037a5780601f1061034f5761010080835404028352916020019161037a565b820191906000526020600020905b81548152906001019060200180831161035d57829003601f168201915b505050505081525082878361038f9190611b37565b815181106103a05761039f611b6b565b5b602002602001018190525080806103b690611b9a565b9150506102b0565b50809250505092915050565b600181815481106103da57600080fd5b906000526020600020016000915090505481565b6000602061ffff168888905010602060405160200161040d9190611c7d565b6040516020818303038152906040529061045d576040517f08c379a00000000000000000000000000000000000000000000000000000000081526004016104549190611cdc565b60405180910390fd5b5061010061ffff16868690501061010060405160200161047d9190611d70565b604051602081830303815290604052906104cd576040517f08c379a00000000000000000000000000000000000000000000000000000000081526004016104c49190611cdc565b60405180910390fd5b507f2012ef02e82e91abf55727cc31c3b6e3375003aa9e879f855db72d9e78822c40426040516104fd91906115d4565b60405180910390a1428411610547576040517f08c379a000000000000000000000000000000000000000000000000000000000815260040161053e90611e08565b60405180910390fd5b601061ffff16838390501060106040516020016105649190611e74565b604051602081830303815290604052906105b4576040517f08c379a00000000000000000000000000000000000000000000000000000000081526004016105ab9190611cdc565b60405180910390fd5b506105bf60046111ab565b60006040518060c001604052808a8a8080601f016020809104026020016040519081016040528093929190818152602001838380828437600081840152601f19601f82011690508083019250505050505050815260200188888080601f016020809104026020016040519081016040528093929190818152602001838380828437600081840152601f19601f82011690508083019250505050505050815260200142815260200186815260200160405180602001604052806000815250815260200161068b600461119d565b815250905060005b848490508161ffff16101561085157608061ffff1685858361ffff168181106106bf576106be611b6b565b5b90506020028101906106d19190611ea9565b90501060806040516020016106e69190611f58565b60405160208183030381529060405290610736576040517f08c379a000000000000000000000000000000000000000000000000000000000815260040161072d9190611cdc565b60405180910390fd5b506000604051806040016040528087878561ffff1681811061075b5761075a611b6b565b5b905060200281019061076d9190611ea9565b8080601f016020809104026020016040519081016040528093929190818152602001838380828437600081840152601f19601f820116905080830192505050505050508152602001604051806020016040528060008152508152509050600260006107d8600461119d565b81526020019081526020016000208190806001815401808255809150506001900390600052602060002090600202016000909190919091506000820151816000019081610825919061212a565b506020820151816001016000820151816000015550505050508080610849906121fc565b915050610693565b5080600080610860600461119d565b81526020019081526020016000206000820151816000019081610883919061212a565b506020820151816001019081610899919061212a565b50604082015181600201556060820151816003015560808201518160040160008201518160000155505060a0820151816005015590505060016108dc600461119d565b908060018154018082558091505060019003906000526020600020016000909190919091505561090a610c63565b50610915600461119d565b915050979650505050505050565b606061092f33846111c1565b1561096f576040517f08c379a000000000000000000000000000000000000000000000000000000000815260040161096690612272565b60405180910390fd5b610979600461119d565b8311156109bb576040517f08c379a00000000000000000000000000000000000000000000000000000000081526004016109b2906122de565b60405180910390fd5b426000808581526020019081526020016000206003015411610a12576040517f08c379a0000000000000000000000000000000000000000000000000000000008152600401610a099061234a565b60405180910390fd5b81600260008581526020019081526020016000208054905011610a6a576040517f08c379a0000000000000000000000000000000000000000000000000000000008152600401610a61906123dc565b60405180910390fd5b60036000848152602001908152602001600020339080600181540180825580915050600190039060005260206000200160009091909190916101000a81548173ffffffffffffffffffffffffffffffffffffffff021916908373ffffffffffffffffffffffffffffffffffffffff160217905550610b1c600260008581526020019081526020016000208381548110610b0657610b05611b6b565b5b90600052602060002090600202016001016111ab565b610b396000808581526020019081526020016000206004016111ab565b610b41610c63565b5060026000848152602001908152602001600020805480602002602001604051908101604052809291908181526020016000905b82821015610c575783829060005260206000209060020201604051806040016040529081600082018054610ba890611b06565b80601f0160208091040260200160405190810160405280929190818152602001828054610bd490611b06565b8015610c215780601f10610bf657610100808354040283529160200191610c21565b820191906000526020600020905b815481529060010190602001808311610c0457829003601f168201915b50505050508152602001600182016040518060200160405290816000820154815250508152505081526020019060010190610b75565b50505050905092915050565b6000806000905060005b6001805490508167ffffffffffffffff161015610d2b57600060018267ffffffffffffffff1681548110610ca457610ca3611b6b565b5b9060005260206000200154905042600080838152602001908152602001600020600301541015610d175760018267ffffffffffffffff1681548110610cec57610ceb611b6b565b5b90600052602060002001600090558280610d05906123fc565b9350508180610d139061242c565b9250505b508080610d23906123fc565b915050610c6d565b508091505090565b610d3b611310565b6060610d45611310565b6000808581526020019081526020016000206000018054610d6590611b06565b80601f0160208091040260200160405190810160405280929190818152602001828054610d9190611b06565b8015610dde5780601f10610db357610100808354040283529160200191610dde565b820191906000526020600020905b815481529060010190602001808311610dc157829003601f168201915b505050505081600001819052506000808581526020019081526020016000206001018054610e0b90611b06565b80601f0160208091040260200160405190810160405280929190818152602001828054610e3790611b06565b8015610e845780601f10610e5957610100808354040283529160200191610e84565b820191906000526020600020905b815481529060010190602001808311610e6757829003601f168201915b5050505050816020018190525060008085815260200190815260200160002060020154816040018181525050600080858152602001908152602001600020600301548160600181815250506000808581526020019081526020016000206004016040518060200160405290816000820154815250508160800181905250600060026000868152602001908152602001600020805480602002602001604051908101604052809291908181526020016000905b828210156110185783829060005260206000209060020201604051806040016040529081600082018054610f6990611b06565b80601f0160208091040260200160405190810160405280929190818152602001828054610f9590611b06565b8015610fe25780601f10610fb757610100808354040283529160200191610fe2565b820191906000526020600020905b815481529060010190602001808311610fc557829003601f168201915b50505050508152602001600182016040518060200160405290816000820154815250508152505081526020019060010190610f36565b5050505090508181935093505050915091565b6060600060018054905067ffffffffffffffff81111561104e5761104d611aa8565b5b60405190808252806020026020018201604052801561108757816020015b6110746112f6565b81526020019060019003908161106c5790505b50905060005b6001805490508110156111955760405180604001604052806001836110b29190611a74565b81526020016000806001856110c79190611a74565b815260200190815260200160002060000180546110e390611b06565b80601f016020809104026020016040519081016040528092919081815260200182805461110f90611b06565b801561115c5780601f106111315761010080835404028352916020019161115c565b820191906000526020600020905b81548152906001019060200180831161113f57829003601f168201915b505050505081525082828151811061117757611176611b6b565b5b6020026020010181905250808061118d90611b9a565b91505061108d565b508091505090565b600081600001549050919050565b6001816000016000828254019250508190555050565b6000806003600084815260200190815260200160002080548060200260200160405190810160405280929190818152602001828054801561125757602002820191906000526020600020905b8160009054906101000a900473ffffffffffffffffffffffffffffffffffffffff1673ffffffffffffffffffffffffffffffffffffffff168152602001906001019080831161120d575b5050505050905060005b81518167ffffffffffffffff1610156112e9578473ffffffffffffffffffffffffffffffffffffffff16828267ffffffffffffffff16815181106112a8576112a7611b6b565b5b602002602001015173ffffffffffffffffffffffffffffffffffffffff16036112d6576001925050506112f0565b80806112e1906123fc565b915050611261565b5060009150505b92915050565b604051806040016040528060008152602001606081525090565b6040518060a001604052806060815260200160608152602001600081526020016000815260200161133f611345565b81525090565b6040518060200160405280600081525090565b600080fd5b600080fd5b6000819050919050565b61137581611362565b811461138057600080fd5b50565b6000813590506113928161136c565b92915050565b600080604083850312156113af576113ae611358565b5b60006113bd85828601611383565b92505060206113ce85828601611383565b9150509250929050565b600081519050919050565b600082825260208201905092915050565b6000819050602082019050919050565b61140d81611362565b82525050565b600081519050919050565b600082825260208201905092915050565b60005b8381101561144d578082015181840152602081019050611432565b60008484015250505050565b6000601f19601f8301169050919050565b600061147582611413565b61147f818561141e565b935061148f81856020860161142f565b61149881611459565b840191505092915050565b60006040830160008301516114bb6000860182611404565b50602083015184820360208601526114d3828261146a565b9150508091505092915050565b60006114ec83836114a3565b905092915050565b6000602082019050919050565b600061150c826113d8565b61151681856113e3565b935083602082028501611528856113f4565b8060005b85811015611564578484038952815161154585826114e0565b9450611550836114f4565b925060208a0199505060018101905061152c565b50829750879550505050505092915050565b600060208201905081810360008301526115908184611501565b905092915050565b6000602082840312156115ae576115ad611358565b5b60006115bc84828501611383565b91505092915050565b6115ce81611362565b82525050565b60006020820190506115e960008301846115c5565b92915050565b600080fd5b600080fd5b600080fd5b60008083601f840112611614576116136115ef565b5b8235905067ffffffffffffffff811115611631576116306115f4565b5b60208301915083600182028301111561164d5761164c6115f9565b5b9250929050565b60008083601f84011261166a576116696115ef565b5b8235905067ffffffffffffffff811115611687576116866115f4565b5b6020830191508360208202830111156116a3576116a26115f9565b5b9250929050565b60008060008060008060006080888a0312156116c9576116c8611358565b5b600088013567ffffffffffffffff8111156116e7576116e661135d565b5b6116f38a828b016115fe565b9750975050602088013567ffffffffffffffff8111156117165761171561135d565b5b6117228a828b016115fe565b955095505060406117358a828b01611383565b935050606088013567ffffffffffffffff8111156117565761175561135d565b5b6117628a828b01611654565b925092505092959891949750929550565b600081519050919050565b600082825260208201905092915050565b6000819050602082019050919050565b6020820160008201516117b56000850182611404565b50505050565b600060408301600083015184820360008601526117d8828261146a565b91505060208301516117ed602086018261179f565b508091505092915050565b600061180483836117bb565b905092915050565b6000602082019050919050565b600061182482611773565b61182e818561177e565b9350836020820285016118408561178f565b8060005b8581101561187c578484038952815161185d85826117f8565b94506118688361180c565b925060208a01995050600181019050611844565b50829750879550505050505092915050565b600060208201905081810360008301526118a88184611819565b905092915050565b600067ffffffffffffffff82169050919050565b6118cd816118b0565b82525050565b60006020820190506118e860008301846118c4565b92915050565b600060a083016000830151848203600086015261190b828261146a565b91505060208301518482036020860152611925828261146a565b915050604083015161193a6040860182611404565b50606083015161194d6060860182611404565b506080830151611960608086018261179f565b508091505092915050565b6000604082019050818103600083015261198581856118ee565b905081810360208301526119998184611819565b90509392505050565b600082825260208201905092915050565b7f46726f6d20696e646578206d75737420626520736d616c6c6572207468656e2060008201527f706f6c6c732e6c656e6774680000000000000000000000000000000000000000602082015250565b6000611a0f602c836119a2565b9150611a1a826119b3565b604082019050919050565b60006020820190508181036000830152611a3e81611a02565b9050919050565b7f4e487b7100000000000000000000000000000000000000000000000000000000600052601160045260246000fd5b6000611a7f82611362565b9150611a8a83611362565b9250828201905080821115611aa257611aa1611a45565b5b92915050565b7f4e487b7100000000000000000000000000000000000000000000000000000000600052604160045260246000fd5b7f4e487b7100000000000000000000000000000000000000000000000000000000600052602260045260246000fd5b60006002820490506001821680611b1e57607f821691505b602082108103611b3157611b30611ad7565b5b50919050565b6000611b4282611362565b9150611b4d83611362565b9250828203905081811115611b6557611b64611a45565b5b92915050565b7f4e487b7100000000000000000000000000000000000000000000000000000000600052603260045260246000fd5b6000611ba582611362565b91507fffffffffffffffffffffffffffffffffffffffffffffffffffffffffffffffff8203611bd757611bd6611a45565b5b600182019050919050565b600081905092915050565b7f546865206d6178206c656e67746820666f7220746865207469746c6520697320600082015250565b6000611c23602083611be2565b9150611c2e82611bed565b602082019050919050565b600061ffff82169050919050565b60008160f01b9050919050565b6000611c5f82611c47565b9050919050565b611c77611c7282611c39565b611c54565b82525050565b6000611c8882611c16565b9150611c948284611c66565b60028201915081905092915050565b6000611cae82611413565b611cb881856119a2565b9350611cc881856020860161142f565b611cd181611459565b840191505092915050565b60006020820190508181036000830152611cf68184611ca3565b905092915050565b7f546865206d6178206c656e67746820666f72207468652064657363726970746960008201527f6f6e206973200000000000000000000000000000000000000000000000000000602082015250565b6000611d5a602683611be2565b9150611d6582611cfe565b602682019050919050565b6000611d7b82611d4d565b9150611d878284611c66565b60028201915081905092915050565b7f45787069726174696f6e20646174652068617320746f2062652062696767657260008201527f207468656e2063757272656e742074696d652100000000000000000000000000602082015250565b6000611df26033836119a2565b9150611dfd82611d96565b604082019050919050565b60006020820190508181036000830152611e2181611de5565b9050919050565b7f546865206d6178206e756d626572206f66206f7074696f6e7320000000000000600082015250565b6000611e5e601a83611be2565b9150611e6982611e28565b601a82019050919050565b6000611e7f82611e51565b9150611e8b8284611c66565b60028201915081905092915050565b600080fd5b600080fd5b600080fd5b60008083356001602003843603038112611ec657611ec5611e9a565b5b80840192508235915067ffffffffffffffff821115611ee857611ee7611e9f565b5b602083019250600182023603831315611f0457611f03611ea4565b5b509250929050565b7f546865206d6178206c656e67746820666f7220616e206f7074696f6e20697320600082015250565b6000611f42602083611be2565b9150611f4d82611f0c565b602082019050919050565b6000611f6382611f35565b9150611f6f8284611c66565b60028201915081905092915050565b60008190508160005260206000209050919050565b60006020601f8301049050919050565b600082821b905092915050565b600060088302611fe07fffffffffffffffffffffffffffffffffffffffffffffffffffffffffffffffff82611fa3565b611fea8683611fa3565b95508019841693508086168417925050509392505050565b6000819050919050565b600061202761202261201d84611362565b612002565b611362565b9050919050565b6000819050919050565b6120418361200c565b61205561204d8261202e565b848454611fb0565b825550505050565b600090565b61206a61205d565b612075818484612038565b505050565b5b818110156120995761208e600082612062565b60018101905061207b565b5050565b601f8211156120de576120af81611f7e565b6120b884611f93565b810160208510156120c7578190505b6120db6120d385611f93565b83018261207a565b50505b505050565b600082821c905092915050565b6000612101600019846008026120e3565b1980831691505092915050565b600061211a83836120f0565b9150826002028217905092915050565b61213382611413565b67ffffffffffffffff81111561214c5761214b611aa8565b5b6121568254611b06565b61216182828561209d565b600060209050601f8311600181146121945760008415612182578287015190505b61218c858261210e565b8655506121f4565b601f1984166121a286611f7e565b60005b828110156121ca578489015182556001820191506020850194506020810190506121a5565b868310156121e757848901516121e3601f8916826120f0565b8355505b6001600288020188555050505b505050505050565b600061220782611c39565b915061ffff820361221b5761221a611a45565b5b600182019050919050565b7f5468697320757365722068617320616c726561647920766f7465642100000000600082015250565b600061225c601c836119a2565b915061226782612226565b602082019050919050565b6000602082019050818103600083015261228b8161224f565b9050919050565b7f5468697320706f6c6c20646f6573206e6f742065786973742100000000000000600082015250565b60006122c86019836119a2565b91506122d382612292565b602082019050919050565b600060208201905081810360008301526122f7816122bb565b9050919050565b7f5468697320706f6c6c2069732065787069726564210000000000000000000000600082015250565b60006123346015836119a2565b915061233f826122fe565b602082019050919050565b6000602082019050818103600083015261236381612327565b9050919050565b7f73656c65637465644f7074696f6e20706f696e747320746f2061206e6f6e2d6560008201527f78697374656e74206f7074696f6e20286f7574206f662072616e676529210000602082015250565b60006123c6603e836119a2565b91506123d18261236a565b604082019050919050565b600060208201905081810360008301526123f5816123b9565b9050919050565b6000612407826118b0565b915067ffffffffffffffff820361242157612420611a45565b5b600182019050919050565b6000612437826118b0565b91506000820361244a57612449611a45565b5b60018203905091905056fea2646970667358221220ce298cbd1b15009c3099e7c55f29c8b83d3a6084b2d8fde42ae721edab161bea64736f6c63430008130033","opcodes":"PUSH1 0x80 PUSH1 0x40 MSTORE CALLVALUE DUP1 ISZERO PUSH2 0x10 JUMPI PUSH1 0x0 DUP1 REVERT JUMPDEST POP PUSH1 0x40 MLOAD DUP1 PUSH1 0x20 ADD PUSH1 0x40 MSTORE DUP1 PUSH1 0x0 DUP2 MSTORE POP PUSH1 0x4 PUSH1 0x0 DUP3 ADD MLOAD DUP2 PUSH1 0x0 ADD SSTORE SWAP1 POP POP PUSH2 0x248B DUP1 PUSH2 0x3F PUSH1 0x0 CODECOPY PUSH1 0x0 RETURN INVALID PUSH1 0x80 PUSH1 0x40 MSTORE PUSH1 0x4 CALLDATASIZE LT PUSH2 0x70 JUMPI PUSH1 0x0 CALLDATALOAD PUSH1 0xE0 SHR DUP1 PUSH4 0xB384ABEF GT PUSH2 0x4E JUMPI DUP1 PUSH4 0xB384ABEF EQ PUSH2 0x11F JUMPI DUP1 PUSH4 0xC08D611A EQ PUSH2 0x14F JUMPI DUP1 PUSH4 0xC8B61C75 EQ PUSH2 0x16D JUMPI DUP1 PUSH4 0xDB25B407 EQ PUSH2 0x1AB JUMPI PUSH2 0x70 JUMP JUMPDEST DUP1 PUSH4 0x183643B4 EQ PUSH2 0x75 JUMPI DUP1 PUSH4 0x7D66C097 EQ PUSH2 0xB2 JUMPI DUP1 PUSH4 0x89E63A15 EQ PUSH2 0xEF JUMPI JUMPDEST PUSH1 0x0 DUP1 REVERT JUMPDEST CALLVALUE DUP1 ISZERO PUSH2 0x81 JUMPI PUSH1 0x0 DUP1 REVERT JUMPDEST POP PUSH2 0x9C PUSH1 0x4 DUP1 CALLDATASIZE SUB DUP2 ADD SWAP1 PUSH2 0x97 SWAP2 SWAP1 PUSH2 0x1398 JUMP JUMPDEST PUSH2 0x1D6 JUMP JUMPDEST PUSH1 0x40 MLOAD PUSH2 0xA9 SWAP2 SWAP1 PUSH2 0x1576 JUMP JUMPDEST PUSH1 0x40 MLOAD DUP1 SWAP2 SUB SWAP1 RETURN JUMPDEST CALLVALUE DUP1 ISZERO PUSH2 0xBE JUMPI PUSH1 0x0 DUP1 REVERT JUMPDEST POP PUSH2 0xD9 PUSH1 0x4 DUP1 CALLDATASIZE SUB DUP2 ADD SWAP1 PUSH2 0xD4 SWAP2 SWAP1 PUSH2 0x1598 JUMP JUMPDEST PUSH2 0x3CA JUMP JUMPDEST PUSH1 0x40 MLOAD PUSH2 0xE6 SWAP2 SWAP1 PUSH2 0x15D4 JUMP JUMPDEST PUSH1 0x40 MLOAD DUP1 SWAP2 SUB SWAP1 RETURN JUMPDEST PUSH2 0x109 PUSH1 0x4 DUP1 CALLDATASIZE SUB DUP2 ADD SWAP1 PUSH2 0x104 SWAP2 SWAP1 PUSH2 0x16AA JUMP JUMPDEST PUSH2 0x3EE JUMP JUMPDEST PUSH1 0x40 MLOAD PUSH2 0x116 SWAP2 SWAP1 PUSH2 0x15D4 JUMP JUMPDEST PUSH1 0x40 MLOAD DUP1 SWAP2 SUB SWAP1 RETURN JUMPDEST PUSH2 0x139 PUSH1 0x4 DUP1 CALLDATASIZE SUB DUP2 ADD SWAP1 PUSH2 0x134 SWAP2 SWAP1 PUSH2 0x1398 JUMP JUMPDEST PUSH2 0x923 JUMP JUMPDEST PUSH1 0x40 MLOAD PUSH2 0x146 SWAP2 SWAP1 PUSH2 0x188E JUMP JUMPDEST PUSH1 0x40 MLOAD DUP1 SWAP2 SUB SWAP1 RETURN JUMPDEST PUSH2 0x157 PUSH2 0xC63 JUMP JUMPDEST PUSH1 0x40 MLOAD PUSH2 0x164 SWAP2 SWAP1 PUSH2 0x18D3 JUMP JUMPDEST PUSH1 0x40 MLOAD DUP1 SWAP2 SUB SWAP1 RETURN JUMPDEST CALLVALUE DUP1 ISZERO PUSH2 0x179 JUMPI PUSH1 0x0 DUP1 REVERT JUMPDEST POP PUSH2 0x194 PUSH1 0x4 DUP1 CALLDATASIZE SUB DUP2 ADD SWAP1 PUSH2 0x18F SWAP2 SWAP1 PUSH2 0x1598 JUMP JUMPDEST PUSH2 0xD33 JUMP JUMPDEST PUSH1 0x40 MLOAD PUSH2 0x1A2 SWAP3 SWAP2 SWAP1 PUSH2 0x196B JUMP JUMPDEST PUSH1 0x40 MLOAD DUP1 SWAP2 SUB SWAP1 RETURN JUMPDEST CALLVALUE DUP1 ISZERO PUSH2 0x1B7 JUMPI PUSH1 0x0 DUP1 REVERT JUMPDEST POP PUSH2 0x1C0 PUSH2 0x102B JUMP JUMPDEST PUSH1 0x40 MLOAD PUSH2 0x1CD SWAP2 SWAP1 PUSH2 0x1576 JUMP JUMPDEST PUSH1 0x40 MLOAD DUP1 SWAP2 SUB SWAP1 RETURN JUMPDEST PUSH1 0x60 PUSH2 0x1E2 PUSH1 0x4 PUSH2 0x119D JUMP JUMPDEST DUP4 GT ISZERO PUSH2 0x224 JUMPI PUSH1 0x40 MLOAD PUSH32 0x8C379A000000000000000000000000000000000000000000000000000000000 DUP2 MSTORE PUSH1 0x4 ADD PUSH2 0x21B SWAP1 PUSH2 0x1A25 JUMP JUMPDEST PUSH1 0x40 MLOAD DUP1 SWAP2 SUB SWAP1 REVERT JUMPDEST PUSH1 0x0 DUP3 SWAP1 POP PUSH2 0x233 PUSH1 0x4 PUSH2 0x119D JUMP JUMPDEST DUP4 DUP6 PUSH2 0x23F SWAP2 SWAP1 PUSH2 0x1A74 JUMP JUMPDEST GT ISZERO PUSH2 0x252 JUMPI PUSH2 0x24F PUSH1 0x4 PUSH2 0x119D JUMP JUMPDEST SWAP1 POP JUMPDEST PUSH1 0x0 DUP2 PUSH8 0xFFFFFFFFFFFFFFFF DUP2 GT ISZERO PUSH2 0x26E JUMPI PUSH2 0x26D PUSH2 0x1AA8 JUMP JUMPDEST JUMPDEST PUSH1 0x40 MLOAD SWAP1 DUP1 DUP3 MSTORE DUP1 PUSH1 0x20 MUL PUSH1 0x20 ADD DUP3 ADD PUSH1 0x40 MSTORE DUP1 ISZERO PUSH2 0x2A7 JUMPI DUP2 PUSH1 0x20 ADD JUMPDEST PUSH2 0x294 PUSH2 0x12F6 JUMP JUMPDEST DUP2 MSTORE PUSH1 0x20 ADD SWAP1 PUSH1 0x1 SWAP1 SUB SWAP1 DUP2 PUSH2 0x28C JUMPI SWAP1 POP JUMPDEST POP SWAP1 POP PUSH1 0x0 DUP6 SWAP1 POP JUMPDEST DUP3 DUP2 LT ISZERO PUSH2 0x3BE JUMPI PUSH1 0x40 MLOAD DUP1 PUSH1 0x40 ADD PUSH1 0x40 MSTORE DUP1 PUSH1 0x1 DUP4 PUSH2 0x2D0 SWAP2 SWAP1 PUSH2 0x1A74 JUMP JUMPDEST DUP2 MSTORE PUSH1 0x20 ADD PUSH1 0x0 DUP1 PUSH1 0x1 DUP6 PUSH2 0x2E5 SWAP2 SWAP1 PUSH2 0x1A74 JUMP JUMPDEST DUP2 MSTORE PUSH1 0x20 ADD SWAP1 DUP2 MSTORE PUSH1 0x20 ADD PUSH1 0x0 KECCAK256 PUSH1 0x0 ADD DUP1 SLOAD PUSH2 0x301 SWAP1 PUSH2 0x1B06 JUMP JUMPDEST DUP1 PUSH1 0x1F ADD PUSH1 0x20 DUP1 SWAP2 DIV MUL PUSH1 0x20 ADD PUSH1 0x40 MLOAD SWAP1 DUP2 ADD PUSH1 0x40 MSTORE DUP1 SWAP3 SWAP2 SWAP1 DUP2 DUP2 MSTORE PUSH1 0x20 ADD DUP3 DUP1 SLOAD PUSH2 0x32D SWAP1 PUSH2 0x1B06 JUMP JUMPDEST DUP1 ISZERO PUSH2 0x37A JUMPI DUP1 PUSH1 0x1F LT PUSH2 0x34F JUMPI PUSH2 0x100 DUP1 DUP4 SLOAD DIV MUL DUP4 MSTORE SWAP2 PUSH1 0x20 ADD SWAP2 PUSH2 0x37A JUMP JUMPDEST DUP3 ADD SWAP2 SWAP1 PUSH1 0x0 MSTORE PUSH1 0x20 PUSH1 0x0 KECCAK256 SWAP1 JUMPDEST DUP2 SLOAD DUP2 MSTORE SWAP1 PUSH1 0x1 ADD SWAP1 PUSH1 0x20 ADD DUP1 DUP4 GT PUSH2 0x35D JUMPI DUP3 SWAP1 SUB PUSH1 0x1F AND DUP3 ADD SWAP2 JUMPDEST POP POP POP POP POP DUP2 MSTORE POP DUP3 DUP8 DUP4 PUSH2 0x38F SWAP2 SWAP1 PUSH2 0x1B37 JUMP JUMPDEST DUP2 MLOAD DUP2 LT PUSH2 0x3A0 JUMPI PUSH2 0x39F PUSH2 0x1B6B JUMP JUMPDEST JUMPDEST PUSH1 0x20 MUL PUSH1 0x20 ADD ADD DUP2 SWAP1 MSTORE POP DUP1 DUP1 PUSH2 0x3B6 SWAP1 PUSH2 0x1B9A JUMP JUMPDEST SWAP2 POP POP PUSH2 0x2B0 JUMP JUMPDEST POP DUP1 SWAP3 POP POP POP SWAP3 SWAP2 POP POP JUMP JUMPDEST PUSH1 0x1 DUP2 DUP2 SLOAD DUP2 LT PUSH2 0x3DA JUMPI PUSH1 0x0 DUP1 REVERT JUMPDEST SWAP1 PUSH1 0x0 MSTORE PUSH1 0x20 PUSH1 0x0 KECCAK256 ADD PUSH1 0x0 SWAP2 POP SWAP1 POP SLOAD DUP2 JUMP JUMPDEST PUSH1 0x0 PUSH1 0x20 PUSH2 0xFFFF AND DUP9 DUP9 SWAP1 POP LT PUSH1 0x20 PUSH1 0x40 MLOAD PUSH1 0x20 ADD PUSH2 0x40D SWAP2 SWAP1 PUSH2 0x1C7D JUMP JUMPDEST PUSH1 0x40 MLOAD PUSH1 0x20 DUP2 DUP4 SUB SUB DUP2 MSTORE SWAP1 PUSH1 0x40 MSTORE SWAP1 PUSH2 0x45D JUMPI PUSH1 0x40 MLOAD PUSH32 0x8C379A000000000000000000000000000000000000000000000000000000000 DUP2 MSTORE PUSH1 0x4 ADD PUSH2 0x454 SWAP2 SWAP1 PUSH2 0x1CDC JUMP JUMPDEST PUSH1 0x40 MLOAD DUP1 SWAP2 SUB SWAP1 REVERT JUMPDEST POP PUSH2 0x100 PUSH2 0xFFFF AND DUP7 DUP7 SWAP1 POP LT PUSH2 0x100 PUSH1 0x40 MLOAD PUSH1 0x20 ADD PUSH2 0x47D SWAP2 SWAP1 PUSH2 0x1D70 JUMP JUMPDEST PUSH1 0x40 MLOAD PUSH1 0x20 DUP2 DUP4 SUB SUB DUP2 MSTORE SWAP1 PUSH1 0x40 MSTORE SWAP1 PUSH2 0x4CD JUMPI PUSH1 0x40 MLOAD PUSH32 0x8C379A000000000000000000000000000000000000000000000000000000000 DUP2 MSTORE PUSH1 0x4 ADD PUSH2 0x4C4 SWAP2 SWAP1 PUSH2 0x1CDC JUMP JUMPDEST PUSH1 0x40 MLOAD DUP1 SWAP2 SUB SWAP1 REVERT JUMPDEST POP PUSH32 0x2012EF02E82E91ABF55727CC31C3B6E3375003AA9E879F855DB72D9E78822C40 TIMESTAMP PUSH1 0x40 MLOAD PUSH2 0x4FD SWAP2 SWAP1 PUSH2 0x15D4 JUMP JUMPDEST PUSH1 0x40 MLOAD DUP1 SWAP2 SUB SWAP1 LOG1 TIMESTAMP DUP5 GT PUSH2 0x547 JUMPI PUSH1 0x40 MLOAD PUSH32 0x8C379A000000000000000000000000000000000000000000000000000000000 DUP2 MSTORE PUSH1 0x4 ADD PUSH2 0x53E SWAP1 PUSH2 0x1E08 JUMP JUMPDEST PUSH1 0x40 MLOAD DUP1 SWAP2 SUB SWAP1 REVERT JUMPDEST PUSH1 0x10 PUSH2 0xFFFF AND DUP4 DUP4 SWAP1 POP LT PUSH1 0x10 PUSH1 0x40 MLOAD PUSH1 0x20 ADD PUSH2 0x564 SWAP2 SWAP1 PUSH2 0x1E74 JUMP JUMPDEST PUSH1 0x40 MLOAD PUSH1 0x20 DUP2 DUP4 SUB SUB DUP2 MSTORE SWAP1 PUSH1 0x40 MSTORE SWAP1 PUSH2 0x5B4 JUMPI PUSH1 0x40 MLOAD PUSH32 0x8C379A000000000000000000000000000000000000000000000000000000000 DUP2 MSTORE PUSH1 0x4 ADD PUSH2 0x5AB SWAP2 SWAP1 PUSH2 0x1CDC JUMP JUMPDEST PUSH1 0x40 MLOAD DUP1 SWAP2 SUB SWAP1 REVERT JUMPDEST POP PUSH2 0x5BF PUSH1 0x4 PUSH2 0x11AB JUMP JUMPDEST PUSH1 0x0 PUSH1 0x40 MLOAD DUP1 PUSH1 0xC0 ADD PUSH1 0x40 MSTORE DUP1 DUP11 DUP11 DUP1 DUP1 PUSH1 0x1F ADD PUSH1 0x20 DUP1 SWAP2 DIV MUL PUSH1 0x20 ADD PUSH1 0x40 MLOAD SWAP1 DUP2 ADD PUSH1 0x40 MSTORE DUP1 SWAP4 SWAP3 SWAP2 SWAP1 DUP2 DUP2 MSTORE PUSH1 0x20 ADD DUP4 DUP4 DUP1 DUP3 DUP5 CALLDATACOPY PUSH1 0x0 DUP2 DUP5 ADD MSTORE PUSH1 0x1F NOT PUSH1 0x1F DUP3 ADD AND SWAP1 POP DUP1 DUP4 ADD SWAP3 POP POP POP POP POP POP POP DUP2 MSTORE PUSH1 0x20 ADD DUP9 DUP9 DUP1 DUP1 PUSH1 0x1F ADD PUSH1 0x20 DUP1 SWAP2 DIV MUL PUSH1 0x20 ADD PUSH1 0x40 MLOAD SWAP1 DUP2 ADD PUSH1 0x40 MSTORE DUP1 SWAP4 SWAP3 SWAP2 SWAP1 DUP2 DUP2 MSTORE PUSH1 0x20 ADD DUP4 DUP4 DUP1 DUP3 DUP5 CALLDATACOPY PUSH1 0x0 DUP2 DUP5 ADD MSTORE PUSH1 0x1F NOT PUSH1 0x1F DUP3 ADD AND SWAP1 POP DUP1 DUP4 ADD SWAP3 POP POP POP POP POP POP POP DUP2 MSTORE PUSH1 0x20 ADD TIMESTAMP DUP2 MSTORE PUSH1 0x20 ADD DUP7 DUP2 MSTORE PUSH1 0x20 ADD PUSH1 0x40 MLOAD DUP1 PUSH1 0x20 ADD PUSH1 0x40 MSTORE DUP1 PUSH1 0x0 DUP2 MSTORE POP DUP2 MSTORE PUSH1 0x20 ADD PUSH2 0x68B PUSH1 0x4 PUSH2 0x119D JUMP JUMPDEST DUP2 MSTORE POP SWAP1 POP PUSH1 0x0 JUMPDEST DUP5 DUP5 SWAP1 POP DUP2 PUSH2 0xFFFF AND LT ISZERO PUSH2 0x851 JUMPI PUSH1 0x80 PUSH2 0xFFFF AND DUP6 DUP6 DUP4 PUSH2 0xFFFF AND DUP2 DUP2 LT PUSH2 0x6BF JUMPI PUSH2 0x6BE PUSH2 0x1B6B JUMP JUMPDEST JUMPDEST SWAP1 POP PUSH1 0x20 MUL DUP2 ADD SWAP1 PUSH2 0x6D1 SWAP2 SWAP1 PUSH2 0x1EA9 JUMP JUMPDEST SWAP1 POP LT PUSH1 0x80 PUSH1 0x40 MLOAD PUSH1 0x20 ADD PUSH2 0x6E6 SWAP2 SWAP1 PUSH2 0x1F58 JUMP JUMPDEST PUSH1 0x40 MLOAD PUSH1 0x20 DUP2 DUP4 SUB SUB DUP2 MSTORE SWAP1 PUSH1 0x40 MSTORE SWAP1 PUSH2 0x736 JUMPI PUSH1 0x40 MLOAD PUSH32 0x8C379A000000000000000000000000000000000000000000000000000000000 DUP2 MSTORE PUSH1 0x4 ADD PUSH2 0x72D SWAP2 SWAP1 PUSH2 0x1CDC JUMP JUMPDEST PUSH1 0x40 MLOAD DUP1 SWAP2 SUB SWAP1 REVERT JUMPDEST POP PUSH1 0x0 PUSH1 0x40 MLOAD DUP1 PUSH1 0x40 ADD PUSH1 0x40 MSTORE DUP1 DUP8 DUP8 DUP6 PUSH2 0xFFFF AND DUP2 DUP2 LT PUSH2 0x75B JUMPI PUSH2 0x75A PUSH2 0x1B6B JUMP JUMPDEST JUMPDEST SWAP1 POP PUSH1 0x20 MUL DUP2 ADD SWAP1 PUSH2 0x76D SWAP2 SWAP1 PUSH2 0x1EA9 JUMP JUMPDEST DUP1 DUP1 PUSH1 0x1F ADD PUSH1 0x20 DUP1 SWAP2 DIV MUL PUSH1 0x20 ADD PUSH1 0x40 MLOAD SWAP1 DUP2 ADD PUSH1 0x40 MSTORE DUP1 SWAP4 SWAP3 SWAP2 SWAP1 DUP2 DUP2 MSTORE PUSH1 0x20 ADD DUP4 DUP4 DUP1 DUP3 DUP5 CALLDATACOPY PUSH1 0x0 DUP2 DUP5 ADD MSTORE PUSH1 0x1F NOT PUSH1 0x1F DUP3 ADD AND SWAP1 POP DUP1 DUP4 ADD SWAP3 POP POP POP POP POP POP POP DUP2 MSTORE PUSH1 0x20 ADD PUSH1 0x40 MLOAD DUP1 PUSH1 0x20 ADD PUSH1 0x40 MSTORE DUP1 PUSH1 0x0 DUP2 MSTORE POP DUP2 MSTORE POP SWAP1 POP PUSH1 0x2 PUSH1 0x0 PUSH2 0x7D8 PUSH1 0x4 PUSH2 0x119D JUMP JUMPDEST DUP2 MSTORE PUSH1 0x20 ADD SWAP1 DUP2 MSTORE PUSH1 0x20 ADD PUSH1 0x0 KECCAK256 DUP2 SWAP1 DUP1 PUSH1 0x1 DUP2 SLOAD ADD DUP1 DUP3 SSTORE DUP1 SWAP2 POP POP PUSH1 0x1 SWAP1 SUB SWAP1 PUSH1 0x0 MSTORE PUSH1 0x20 PUSH1 0x0 KECCAK256 SWAP1 PUSH1 0x2 MUL ADD PUSH1 0x0 SWAP1 SWAP2 SWAP1 SWAP2 SWAP1 SWAP2 POP PUSH1 0x0 DUP3 ADD MLOAD DUP2 PUSH1 0x0 ADD SWAP1 DUP2 PUSH2 0x825 SWAP2 SWAP1 PUSH2 0x212A JUMP JUMPDEST POP PUSH1 0x20 DUP3 ADD MLOAD DUP2 PUSH1 0x1 ADD PUSH1 0x0 DUP3 ADD MLOAD DUP2 PUSH1 0x0 ADD SSTORE POP POP POP POP POP DUP1 DUP1 PUSH2 0x849 SWAP1 PUSH2 0x21FC JUMP JUMPDEST SWAP2 POP POP PUSH2 0x693 JUMP JUMPDEST POP DUP1 PUSH1 0x0 DUP1 PUSH2 0x860 PUSH1 0x4 PUSH2 0x119D JUMP JUMPDEST DUP2 MSTORE PUSH1 0x20 ADD SWAP1 DUP2 MSTORE PUSH1 0x20 ADD PUSH1 0x0 KECCAK256 PUSH1 0x0 DUP3 ADD MLOAD DUP2 PUSH1 0x0 ADD SWAP1 DUP2 PUSH2 0x883 SWAP2 SWAP1 PUSH2 0x212A JUMP JUMPDEST POP PUSH1 0x20 DUP3 ADD MLOAD DUP2 PUSH1 0x1 ADD SWAP1 DUP2 PUSH2 0x899 SWAP2 SWAP1 PUSH2 0x212A JUMP JUMPDEST POP PUSH1 0x40 DUP3 ADD MLOAD DUP2 PUSH1 0x2 ADD SSTORE PUSH1 0x60 DUP3 ADD MLOAD DUP2 PUSH1 0x3 ADD SSTORE PUSH1 0x80 DUP3 ADD MLOAD DUP2 PUSH1 0x4 ADD PUSH1 0x0 DUP3 ADD MLOAD DUP2 PUSH1 0x0 ADD SSTORE POP POP PUSH1 0xA0 DUP3 ADD MLOAD DUP2 PUSH1 0x5 ADD SSTORE SWAP1 POP POP PUSH1 0x1 PUSH2 0x8DC PUSH1 0x4 PUSH2 0x119D JUMP JUMPDEST SWAP1 DUP1 PUSH1 0x1 DUP2 SLOAD ADD DUP1 DUP3 SSTORE DUP1 SWAP2 POP POP PUSH1 0x1 SWAP1 SUB SWAP1 PUSH1 0x0 MSTORE PUSH1 0x20 PUSH1 0x0 KECCAK256 ADD PUSH1 0x0 SWAP1 SWAP2 SWAP1 SWAP2 SWAP1 SWAP2 POP SSTORE PUSH2 0x90A PUSH2 0xC63 JUMP JUMPDEST POP PUSH2 0x915 PUSH1 0x4 PUSH2 0x119D JUMP JUMPDEST SWAP2 POP POP SWAP8 SWAP7 POP POP POP POP POP POP POP JUMP JUMPDEST PUSH1 0x60 PUSH2 0x92F CALLER DUP5 PUSH2 0x11C1 JUMP JUMPDEST ISZERO PUSH2 0x96F JUMPI PUSH1 0x40 MLOAD PUSH32 0x8C379A000000000000000000000000000000000000000000000000000000000 DUP2 MSTORE PUSH1 0x4 ADD PUSH2 0x966 SWAP1 PUSH2 0x2272 JUMP JUMPDEST PUSH1 0x40 MLOAD DUP1 SWAP2 SUB SWAP1 REVERT JUMPDEST PUSH2 0x979 PUSH1 0x4 PUSH2 0x119D JUMP JUMPDEST DUP4 GT ISZERO PUSH2 0x9BB JUMPI PUSH1 0x40 MLOAD PUSH32 0x8C379A000000000000000000000000000000000000000000000000000000000 DUP2 MSTORE PUSH1 0x4 ADD PUSH2 0x9B2 SWAP1 PUSH2 0x22DE JUMP JUMPDEST PUSH1 0x40 MLOAD DUP1 SWAP2 SUB SWAP1 REVERT JUMPDEST TIMESTAMP PUSH1 0x0 DUP1 DUP6 DUP2 MSTORE PUSH1 0x20 ADD SWAP1 DUP2 MSTORE PUSH1 0x20 ADD PUSH1 0x0 KECCAK256 PUSH1 0x3 ADD SLOAD GT PUSH2 0xA12 JUMPI PUSH1 0x40 MLOAD PUSH32 0x8C379A000000000000000000000000000000000000000000000000000000000 DUP2 MSTORE PUSH1 0x4 ADD PUSH2 0xA09 SWAP1 PUSH2 0x234A JUMP JUMPDEST PUSH1 0x40 MLOAD DUP1 SWAP2 SUB SWAP1 REVERT JUMPDEST DUP2 PUSH1 0x2 PUSH1 0x0 DUP6 DUP2 MSTORE PUSH1 0x20 ADD SWAP1 DUP2 MSTORE PUSH1 0x20 ADD PUSH1 0x0 KECCAK256 DUP1 SLOAD SWAP1 POP GT PUSH2 0xA6A JUMPI PUSH1 0x40 MLOAD PUSH32 0x8C379A000000000000000000000000000000000000000000000000000000000 DUP2 MSTORE PUSH1 0x4 ADD PUSH2 0xA61 SWAP1 PUSH2 0x23DC JUMP JUMPDEST PUSH1 0x40 MLOAD DUP1 SWAP2 SUB SWAP1 REVERT JUMPDEST PUSH1 0x3 PUSH1 0x0 DUP5 DUP2 MSTORE PUSH1 0x20 ADD SWAP1 DUP2 MSTORE PUSH1 0x20 ADD PUSH1 0x0 KECCAK256 CALLER SWAP1 DUP1 PUSH1 0x1 DUP2 SLOAD ADD DUP1 DUP3 SSTORE DUP1 SWAP2 POP POP PUSH1 0x1 SWAP1 SUB SWAP1 PUSH1 0x0 MSTORE PUSH1 0x20 PUSH1 0x0 KECCAK256 ADD PUSH1 0x0 SWAP1 SWAP2 SWAP1 SWAP2 SWAP1 SWAP2 PUSH2 0x100 EXP DUP2 SLOAD DUP2 PUSH20 0xFFFFFFFFFFFFFFFFFFFFFFFFFFFFFFFFFFFFFFFF MUL NOT AND SWAP1 DUP4 PUSH20 0xFFFFFFFFFFFFFFFFFFFFFFFFFFFFFFFFFFFFFFFF AND MUL OR SWAP1 SSTORE POP PUSH2 0xB1C PUSH1 0x2 PUSH1 0x0 DUP6 DUP2 MSTORE PUSH1 0x20 ADD SWAP1 DUP2 MSTORE PUSH1 0x20 ADD PUSH1 0x0 KECCAK256 DUP4 DUP2 SLOAD DUP2 LT PUSH2 0xB06 JUMPI PUSH2 0xB05 PUSH2 0x1B6B JUMP JUMPDEST JUMPDEST SWAP1 PUSH1 0x0 MSTORE PUSH1 0x20 PUSH1 0x0 KECCAK256 SWAP1 PUSH1 0x2 MUL ADD PUSH1 0x1 ADD PUSH2 0x11AB JUMP JUMPDEST PUSH2 0xB39 PUSH1 0x0 DUP1 DUP6 DUP2 MSTORE PUSH1 0x20 ADD SWAP1 DUP2 MSTORE PUSH1 0x20 ADD PUSH1 0x0 KECCAK256 PUSH1 0x4 ADD PUSH2 0x11AB JUMP JUMPDEST PUSH2 0xB41 PUSH2 0xC63 JUMP JUMPDEST POP PUSH1 0x2 PUSH1 0x0 DUP5 DUP2 MSTORE PUSH1 0x20 ADD SWAP1 DUP2 MSTORE PUSH1 0x20 ADD PUSH1 0x0 KECCAK256 DUP1 SLOAD DUP1 PUSH1 0x20 MUL PUSH1 0x20 ADD PUSH1 0x40 MLOAD SWAP1 DUP2 ADD PUSH1 0x40 MSTORE DUP1 SWAP3 SWAP2 SWAP1 DUP2 DUP2 MSTORE PUSH1 0x20 ADD PUSH1 0x0 SWAP1 JUMPDEST DUP3 DUP3 LT ISZERO PUSH2 0xC57 JUMPI DUP4 DUP3 SWAP1 PUSH1 0x0 MSTORE PUSH1 0x20 PUSH1 0x0 KECCAK256 SWAP1 PUSH1 0x2 MUL ADD PUSH1 0x40 MLOAD DUP1 PUSH1 0x40 ADD PUSH1 0x40 MSTORE SWAP1 DUP2 PUSH1 0x0 DUP3 ADD DUP1 SLOAD PUSH2 0xBA8 SWAP1 PUSH2 0x1B06 JUMP JUMPDEST DUP1 PUSH1 0x1F ADD PUSH1 0x20 DUP1 SWAP2 DIV MUL PUSH1 0x20 ADD PUSH1 0x40 MLOAD SWAP1 DUP2 ADD PUSH1 0x40 MSTORE DUP1 SWAP3 SWAP2 SWAP1 DUP2 DUP2 MSTORE PUSH1 0x20 ADD DUP3 DUP1 SLOAD PUSH2 0xBD4 SWAP1 PUSH2 0x1B06 JUMP JUMPDEST DUP1 ISZERO PUSH2 0xC21 JUMPI DUP1 PUSH1 0x1F LT PUSH2 0xBF6 JUMPI PUSH2 0x100 DUP1 DUP4 SLOAD DIV MUL DUP4 MSTORE SWAP2 PUSH1 0x20 ADD SWAP2 PUSH2 0xC21 JUMP JUMPDEST DUP3 ADD SWAP2 SWAP1 PUSH1 0x0 MSTORE PUSH1 0x20 PUSH1 0x0 KECCAK256 SWAP1 JUMPDEST DUP2 SLOAD DUP2 MSTORE SWAP1 PUSH1 0x1 ADD SWAP1 PUSH1 0x20 ADD DUP1 DUP4 GT PUSH2 0xC04 JUMPI DUP3 SWAP1 SUB PUSH1 0x1F AND DUP3 ADD SWAP2 JUMPDEST POP POP POP POP POP DUP2 MSTORE PUSH1 0x20 ADD PUSH1 0x1 DUP3 ADD PUSH1 0x40 MLOAD DUP1 PUSH1 0x20 ADD PUSH1 0x40 MSTORE SWAP1 DUP2 PUSH1 0x0 DUP3 ADD SLOAD DUP2 MSTORE POP POP DUP2 MSTORE POP POP DUP2 MSTORE PUSH1 0x20 ADD SWAP1 PUSH1 0x1 ADD SWAP1 PUSH2 0xB75 JUMP JUMPDEST POP POP POP POP SWAP1 POP SWAP3 SWAP2 POP POP JUMP JUMPDEST PUSH1 0x0 DUP1 PUSH1 0x0 SWAP1 POP PUSH1 0x0 JUMPDEST PUSH1 0x1 DUP1 SLOAD SWAP1 POP DUP2 PUSH8 0xFFFFFFFFFFFFFFFF AND LT ISZERO PUSH2 0xD2B JUMPI PUSH1 0x0 PUSH1 0x1 DUP3 PUSH8 0xFFFFFFFFFFFFFFFF AND DUP2 SLOAD DUP2 LT PUSH2 0xCA4 JUMPI PUSH2 0xCA3 PUSH2 0x1B6B JUMP JUMPDEST JUMPDEST SWAP1 PUSH1 0x0 MSTORE PUSH1 0x20 PUSH1 0x0 KECCAK256 ADD SLOAD SWAP1 POP TIMESTAMP PUSH1 0x0 DUP1 DUP4 DUP2 MSTORE PUSH1 0x20 ADD SWAP1 DUP2 MSTORE PUSH1 0x20 ADD PUSH1 0x0 KECCAK256 PUSH1 0x3 ADD SLOAD LT ISZERO PUSH2 0xD17 JUMPI PUSH1 0x1 DUP3 PUSH8 0xFFFFFFFFFFFFFFFF AND DUP2 SLOAD DUP2 LT PUSH2 0xCEC JUMPI PUSH2 0xCEB PUSH2 0x1B6B JUMP JUMPDEST JUMPDEST SWAP1 PUSH1 0x0 MSTORE PUSH1 0x20 PUSH1 0x0 KECCAK256 ADD PUSH1 0x0 SWAP1 SSTORE DUP3 DUP1 PUSH2 0xD05 SWAP1 PUSH2 0x23FC JUMP JUMPDEST SWAP4 POP POP DUP2 DUP1 PUSH2 0xD13 SWAP1 PUSH2 0x242C JUMP JUMPDEST SWAP3 POP POP JUMPDEST POP DUP1 DUP1 PUSH2 0xD23 SWAP1 PUSH2 0x23FC JUMP JUMPDEST SWAP2 POP POP PUSH2 0xC6D JUMP JUMPDEST POP DUP1 SWAP2 POP POP SWAP1 JUMP JUMPDEST PUSH2 0xD3B PUSH2 0x1310 JUMP JUMPDEST PUSH1 0x60 PUSH2 0xD45 PUSH2 0x1310 JUMP JUMPDEST PUSH1 0x0 DUP1 DUP6 DUP2 MSTORE PUSH1 0x20 ADD SWAP1 DUP2 MSTORE PUSH1 0x20 ADD PUSH1 0x0 KECCAK256 PUSH1 0x0 ADD DUP1 SLOAD PUSH2 0xD65 SWAP1 PUSH2 0x1B06 JUMP JUMPDEST DUP1 PUSH1 0x1F ADD PUSH1 0x20 DUP1 SWAP2 DIV MUL PUSH1 0x20 ADD PUSH1 0x40 MLOAD SWAP1 DUP2 ADD PUSH1 0x40 MSTORE DUP1 SWAP3 SWAP2 SWAP1 DUP2 DUP2 MSTORE PUSH1 0x20 ADD DUP3 DUP1 SLOAD PUSH2 0xD91 SWAP1 PUSH2 0x1B06 JUMP JUMPDEST DUP1 ISZERO PUSH2 0xDDE JUMPI DUP1 PUSH1 0x1F LT PUSH2 0xDB3 JUMPI PUSH2 0x100 DUP1 DUP4 SLOAD DIV MUL DUP4 MSTORE SWAP2 PUSH1 0x20 ADD SWAP2 PUSH2 0xDDE JUMP JUMPDEST DUP3 ADD SWAP2 SWAP1 PUSH1 0x0 MSTORE PUSH1 0x20 PUSH1 0x0 KECCAK256 SWAP1 JUMPDEST DUP2 SLOAD DUP2 MSTORE SWAP1 PUSH1 0x1 ADD SWAP1 PUSH1 0x20 ADD DUP1 DUP4 GT PUSH2 0xDC1 JUMPI DUP3 SWAP1 SUB PUSH1 0x1F AND DUP3 ADD SWAP2 JUMPDEST POP POP POP POP POP DUP2 PUSH1 0x0 ADD DUP2 SWAP1 MSTORE POP PUSH1 0x0 DUP1 DUP6 DUP2 MSTORE PUSH1 0x20 ADD SWAP1 DUP2 MSTORE PUSH1 0x20 ADD PUSH1 0x0 KECCAK256 PUSH1 0x1 ADD DUP1 SLOAD PUSH2 0xE0B SWAP1 PUSH2 0x1B06 JUMP JUMPDEST DUP1 PUSH1 0x1F ADD PUSH1 0x20 DUP1 SWAP2 DIV MUL PUSH1 0x20 ADD PUSH1 0x40 MLOAD SWAP1 DUP2 ADD PUSH1 0x40 MSTORE DUP1 SWAP3 SWAP2 SWAP1 DUP2 DUP2 MSTORE PUSH1 0x20 ADD DUP3 DUP1 SLOAD PUSH2 0xE37 SWAP1 PUSH2 0x1B06 JUMP JUMPDEST DUP1 ISZERO PUSH2 0xE84 JUMPI DUP1 PUSH1 0x1F LT PUSH2 0xE59 JUMPI PUSH2 0x100 DUP1 DUP4 SLOAD DIV MUL DUP4 MSTORE SWAP2 PUSH1 0x20 ADD SWAP2 PUSH2 0xE84 JUMP JUMPDEST DUP3 ADD SWAP2 SWAP1 PUSH1 0x0 MSTORE PUSH1 0x20 PUSH1 0x0 KECCAK256 SWAP1 JUMPDEST DUP2 SLOAD DUP2 MSTORE SWAP1 PUSH1 0x1 ADD SWAP1 PUSH1 0x20 ADD DUP1 DUP4 GT PUSH2 0xE67 JUMPI DUP3 SWAP1 SUB PUSH1 0x1F AND DUP3 ADD SWAP2 JUMPDEST POP POP POP POP POP DUP2 PUSH1 0x20 ADD DUP2 SWAP1 MSTORE POP PUSH1 0x0 DUP1 DUP6 DUP2 MSTORE PUSH1 0x20 ADD SWAP1 DUP2 MSTORE PUSH1 0x20 ADD PUSH1 0x0 KECCAK256 PUSH1 0x2 ADD SLOAD DUP2 PUSH1 0x40 ADD DUP2 DUP2 MSTORE POP POP PUSH1 0x0 DUP1 DUP6 DUP2 MSTORE PUSH1 0x20 ADD SWAP1 DUP2 MSTORE PUSH1 0x20 ADD PUSH1 0x0 KECCAK256 PUSH1 0x3 ADD SLOAD DUP2 PUSH1 0x60 ADD DUP2 DUP2 MSTORE POP POP PUSH1 0x0 DUP1 DUP6 DUP2 MSTORE PUSH1 0x20 ADD SWAP1 DUP2 MSTORE PUSH1 0x20 ADD PUSH1 0x0 KECCAK256 PUSH1 0x4 ADD PUSH1 0x40 MLOAD DUP1 PUSH1 0x20 ADD PUSH1 0x40 MSTORE SWAP1 DUP2 PUSH1 0x0 DUP3 ADD SLOAD DUP2 MSTORE POP POP DUP2 PUSH1 0x80 ADD DUP2 SWAP1 MSTORE POP PUSH1 0x0 PUSH1 0x2 PUSH1 0x0 DUP7 DUP2 MSTORE PUSH1 0x20 ADD SWAP1 DUP2 MSTORE PUSH1 0x20 ADD PUSH1 0x0 KECCAK256 DUP1 SLOAD DUP1 PUSH1 0x20 MUL PUSH1 0x20 ADD PUSH1 0x40 MLOAD SWAP1 DUP2 ADD PUSH1 0x40 MSTORE DUP1 SWAP3 SWAP2 SWAP1 DUP2 DUP2 MSTORE PUSH1 0x20 ADD PUSH1 0x0 SWAP1 JUMPDEST DUP3 DUP3 LT ISZERO PUSH2 0x1018 JUMPI DUP4 DUP3 SWAP1 PUSH1 0x0 MSTORE PUSH1 0x20 PUSH1 0x0 KECCAK256 SWAP1 PUSH1 0x2 MUL ADD PUSH1 0x40 MLOAD DUP1 PUSH1 0x40 ADD PUSH1 0x40 MSTORE SWAP1 DUP2 PUSH1 0x0 DUP3 ADD DUP1 SLOAD PUSH2 0xF69 SWAP1 PUSH2 0x1B06 JUMP JUMPDEST DUP1 PUSH1 0x1F ADD PUSH1 0x20 DUP1 SWAP2 DIV MUL PUSH1 0x20 ADD PUSH1 0x40 MLOAD SWAP1 DUP2 ADD PUSH1 0x40 MSTORE DUP1 SWAP3 SWAP2 SWAP1 DUP2 DUP2 MSTORE PUSH1 0x20 ADD DUP3 DUP1 SLOAD PUSH2 0xF95 SWAP1 PUSH2 0x1B06 JUMP JUMPDEST DUP1 ISZERO PUSH2 0xFE2 JUMPI DUP1 PUSH1 0x1F LT PUSH2 0xFB7 JUMPI PUSH2 0x100 DUP1 DUP4 SLOAD DIV MUL DUP4 MSTORE SWAP2 PUSH1 0x20 ADD SWAP2 PUSH2 0xFE2 JUMP JUMPDEST DUP3 ADD SWAP2 SWAP1 PUSH1 0x0 MSTORE PUSH1 0x20 PUSH1 0x0 KECCAK256 SWAP1 JUMPDEST DUP2 SLOAD DUP2 MSTORE SWAP1 PUSH1 0x1 ADD SWAP1 PUSH1 0x20 ADD DUP1 DUP4 GT PUSH2 0xFC5 JUMPI DUP3 SWAP1 SUB PUSH1 0x1F AND DUP3 ADD SWAP2 JUMPDEST POP POP POP POP POP DUP2 MSTORE PUSH1 0x20 ADD PUSH1 0x1 DUP3 ADD PUSH1 0x40 MLOAD DUP1 PUSH1 0x20 ADD PUSH1 0x40 MSTORE SWAP1 DUP2 PUSH1 0x0 DUP3 ADD SLOAD DUP2 MSTORE POP POP DUP2 MSTORE POP POP DUP2 MSTORE PUSH1 0x20 ADD SWAP1 PUSH1 0x1 ADD SWAP1 PUSH2 0xF36 JUMP JUMPDEST POP POP POP POP SWAP1 POP DUP2 DUP2 SWAP4 POP SWAP4 POP POP POP SWAP2 POP SWAP2 JUMP JUMPDEST PUSH1 0x60 PUSH1 0x0 PUSH1 0x1 DUP1 SLOAD SWAP1 POP PUSH8 0xFFFFFFFFFFFFFFFF DUP2 GT ISZERO PUSH2 0x104E JUMPI PUSH2 0x104D PUSH2 0x1AA8 JUMP JUMPDEST JUMPDEST PUSH1 0x40 MLOAD SWAP1 DUP1 DUP3 MSTORE DUP1 PUSH1 0x20 MUL PUSH1 0x20 ADD DUP3 ADD PUSH1 0x40 MSTORE DUP1 ISZERO PUSH2 0x1087 JUMPI DUP2 PUSH1 0x20 ADD JUMPDEST PUSH2 0x1074 PUSH2 0x12F6 JUMP JUMPDEST DUP2 MSTORE PUSH1 0x20 ADD SWAP1 PUSH1 0x1 SWAP1 SUB SWAP1 DUP2 PUSH2 0x106C JUMPI SWAP1 POP JUMPDEST POP SWAP1 POP PUSH1 0x0 JUMPDEST PUSH1 0x1 DUP1 SLOAD SWAP1 POP DUP2 LT ISZERO PUSH2 0x1195 JUMPI PUSH1 0x40 MLOAD DUP1 PUSH1 0x40 ADD PUSH1 0x40 MSTORE DUP1 PUSH1 0x1 DUP4 PUSH2 0x10B2 SWAP2 SWAP1 PUSH2 0x1A74 JUMP JUMPDEST DUP2 MSTORE PUSH1 0x20 ADD PUSH1 0x0 DUP1 PUSH1 0x1 DUP6 PUSH2 0x10C7 SWAP2 SWAP1 PUSH2 0x1A74 JUMP JUMPDEST DUP2 MSTORE PUSH1 0x20 ADD SWAP1 DUP2 MSTORE PUSH1 0x20 ADD PUSH1 0x0 KECCAK256 PUSH1 0x0 ADD DUP1 SLOAD PUSH2 0x10E3 SWAP1 PUSH2 0x1B06 JUMP JUMPDEST DUP1 PUSH1 0x1F ADD PUSH1 0x20 DUP1 SWAP2 DIV MUL PUSH1 0x20 ADD PUSH1 0x40 MLOAD SWAP1 DUP2 ADD PUSH1 0x40 MSTORE DUP1 SWAP3 SWAP2 SWAP1 DUP2 DUP2 MSTORE PUSH1 0x20 ADD DUP3 DUP1 SLOAD PUSH2 0x110F SWAP1 PUSH2 0x1B06 JUMP JUMPDEST DUP1 ISZERO PUSH2 0x115C JUMPI DUP1 PUSH1 0x1F LT PUSH2 0x1131 JUMPI PUSH2 0x100 DUP1 DUP4 SLOAD DIV MUL DUP4 MSTORE SWAP2 PUSH1 0x20 ADD SWAP2 PUSH2 0x115C JUMP JUMPDEST DUP3 ADD SWAP2 SWAP1 PUSH1 0x0 MSTORE PUSH1 0x20 PUSH1 0x0 KECCAK256 SWAP1 JUMPDEST DUP2 SLOAD DUP2 MSTORE SWAP1 PUSH1 0x1 ADD SWAP1 PUSH1 0x20 ADD DUP1 DUP4 GT PUSH2 0x113F JUMPI DUP3 SWAP1 SUB PUSH1 0x1F AND DUP3 ADD SWAP2 JUMPDEST POP POP POP POP POP DUP2 MSTORE POP DUP3 DUP3 DUP2 MLOAD DUP2 LT PUSH2 0x1177 JUMPI PUSH2 0x1176 PUSH2 0x1B6B JUMP JUMPDEST JUMPDEST PUSH1 0x20 MUL PUSH1 0x20 ADD ADD DUP2 SWAP1 MSTORE POP DUP1 DUP1 PUSH2 0x118D SWAP1 PUSH2 0x1B9A JUMP JUMPDEST SWAP2 POP POP PUSH2 0x108D JUMP JUMPDEST POP DUP1 SWAP2 POP POP SWAP1 JUMP JUMPDEST PUSH1 0x0 DUP2 PUSH1 0x0 ADD SLOAD SWAP1 POP SWAP2 SWAP1 POP JUMP JUMPDEST PUSH1 0x1 DUP2 PUSH1 0x0 ADD PUSH1 0x0 DUP3 DUP3 SLOAD ADD SWAP3 POP POP DUP2 SWAP1 SSTORE POP POP JUMP JUMPDEST PUSH1 0x0 DUP1 PUSH1 0x3 PUSH1 0x0 DUP5 DUP2 MSTORE PUSH1 0x20 ADD SWAP1 DUP2 MSTORE PUSH1 0x20 ADD PUSH1 0x0 KECCAK256 DUP1 SLOAD DUP1 PUSH1 0x20 MUL PUSH1 0x20 ADD PUSH1 0x40 MLOAD SWAP1 DUP2 ADD PUSH1 0x40 MSTORE DUP1 SWAP3 SWAP2 SWAP1 DUP2 DUP2 MSTORE PUSH1 0x20 ADD DUP3 DUP1 SLOAD DUP1 ISZERO PUSH2 0x1257 JUMPI PUSH1 0x20 MUL DUP3 ADD SWAP2 SWAP1 PUSH1 0x0 MSTORE PUSH1 0x20 PUSH1 0x0 KECCAK256 SWAP1 JUMPDEST DUP2 PUSH1 0x0 SWAP1 SLOAD SWAP1 PUSH2 0x100 EXP SWAP1 DIV PUSH20 0xFFFFFFFFFFFFFFFFFFFFFFFFFFFFFFFFFFFFFFFF AND PUSH20 0xFFFFFFFFFFFFFFFFFFFFFFFFFFFFFFFFFFFFFFFF AND DUP2 MSTORE PUSH1 0x20 ADD SWAP1 PUSH1 0x1 ADD SWAP1 DUP1 DUP4 GT PUSH2 0x120D JUMPI JUMPDEST POP POP POP POP POP SWAP1 POP PUSH1 0x0 JUMPDEST DUP2 MLOAD DUP2 PUSH8 0xFFFFFFFFFFFFFFFF AND LT ISZERO PUSH2 0x12E9 JUMPI DUP5 PUSH20 0xFFFFFFFFFFFFFFFFFFFFFFFFFFFFFFFFFFFFFFFF AND DUP3 DUP3 PUSH8 0xFFFFFFFFFFFFFFFF AND DUP2 MLOAD DUP2 LT PUSH2 0x12A8 JUMPI PUSH2 0x12A7 PUSH2 0x1B6B JUMP JUMPDEST JUMPDEST PUSH1 0x20 MUL PUSH1 0x20 ADD ADD MLOAD PUSH20 0xFFFFFFFFFFFFFFFFFFFFFFFFFFFFFFFFFFFFFFFF AND SUB PUSH2 0x12D6 JUMPI PUSH1 0x1 SWAP3 POP POP POP PUSH2 0x12F0 JUMP JUMPDEST DUP1 DUP1 PUSH2 0x12E1 SWAP1 PUSH2 0x23FC JUMP JUMPDEST SWAP2 POP POP PUSH2 0x1261 JUMP JUMPDEST POP PUSH1 0x0 SWAP2 POP POP JUMPDEST SWAP3 SWAP2 POP POP JUMP JUMPDEST PUSH1 0x40 MLOAD DUP1 PUSH1 0x40 ADD PUSH1 0x40 MSTORE DUP1 PUSH1 0x0 DUP2 MSTORE PUSH1 0x20 ADD PUSH1 0x60 DUP2 MSTORE POP SWAP1 JUMP JUMPDEST PUSH1 0x40 MLOAD DUP1 PUSH1 0xA0 ADD PUSH1 0x40 MSTORE DUP1 PUSH1 0x60 DUP2 MSTORE PUSH1 0x20 ADD PUSH1 0x60 DUP2 MSTORE PUSH1 0x20 ADD PUSH1 0x0 DUP2 MSTORE PUSH1 0x20 ADD PUSH1 0x0 DUP2 MSTORE PUSH1 0x20 ADD PUSH2 0x133F PUSH2 0x1345 JUMP JUMPDEST DUP2 MSTORE POP SWAP1 JUMP JUMPDEST PUSH1 0x40 MLOAD DUP1 PUSH1 0x20 ADD PUSH1 0x40 MSTORE DUP1 PUSH1 0x0 DUP2 MSTORE POP SWAP1 JUMP JUMPDEST PUSH1 0x0 DUP1 REVERT JUMPDEST PUSH1 0x0 DUP1 REVERT JUMPDEST PUSH1 0x0 DUP2 SWAP1 POP SWAP2 SWAP1 POP JUMP JUMPDEST PUSH2 0x1375 DUP2 PUSH2 0x1362 JUMP JUMPDEST DUP2 EQ PUSH2 0x1380 JUMPI PUSH1 0x0 DUP1 REVERT JUMPDEST POP JUMP JUMPDEST PUSH1 0x0 DUP2 CALLDATALOAD SWAP1 POP PUSH2 0x1392 DUP2 PUSH2 0x136C JUMP JUMPDEST SWAP3 SWAP2 POP POP JUMP JUMPDEST PUSH1 0x0 DUP1 PUSH1 0x40 DUP4 DUP6 SUB SLT ISZERO PUSH2 0x13AF JUMPI PUSH2 0x13AE PUSH2 0x1358 JUMP JUMPDEST JUMPDEST PUSH1 0x0 PUSH2 0x13BD DUP6 DUP3 DUP7 ADD PUSH2 0x1383 JUMP JUMPDEST SWAP3 POP POP PUSH1 0x20 PUSH2 0x13CE DUP6 DUP3 DUP7 ADD PUSH2 0x1383 JUMP JUMPDEST SWAP2 POP POP SWAP3 POP SWAP3 SWAP1 POP JUMP JUMPDEST PUSH1 0x0 DUP2 MLOAD SWAP1 POP SWAP2 SWAP1 POP JUMP JUMPDEST PUSH1 0x0 DUP3 DUP3 MSTORE PUSH1 0x20 DUP3 ADD SWAP1 POP SWAP3 SWAP2 POP POP JUMP JUMPDEST PUSH1 0x0 DUP2 SWAP1 POP PUSH1 0x20 DUP3 ADD SWAP1 POP SWAP2 SWAP1 POP JUMP JUMPDEST PUSH2 0x140D DUP2 PUSH2 0x1362 JUMP JUMPDEST DUP3 MSTORE POP POP JUMP JUMPDEST PUSH1 0x0 DUP2 MLOAD SWAP1 POP SWAP2 SWAP1 POP JUMP JUMPDEST PUSH1 0x0 DUP3 DUP3 MSTORE PUSH1 0x20 DUP3 ADD SWAP1 POP SWAP3 SWAP2 POP POP JUMP JUMPDEST PUSH1 0x0 JUMPDEST DUP4 DUP2 LT ISZERO PUSH2 0x144D JUMPI DUP1 DUP3 ADD MLOAD DUP2 DUP5 ADD MSTORE PUSH1 0x20 DUP2 ADD SWAP1 POP PUSH2 0x1432 JUMP JUMPDEST PUSH1 0x0 DUP5 DUP5 ADD MSTORE POP POP POP POP JUMP JUMPDEST PUSH1 0x0 PUSH1 0x1F NOT PUSH1 0x1F DUP4 ADD AND SWAP1 POP SWAP2 SWAP1 POP JUMP JUMPDEST PUSH1 0x0 PUSH2 0x1475 DUP3 PUSH2 0x1413 JUMP JUMPDEST PUSH2 0x147F DUP2 DUP6 PUSH2 0x141E JUMP JUMPDEST SWAP4 POP PUSH2 0x148F DUP2 DUP6 PUSH1 0x20 DUP7 ADD PUSH2 0x142F JUMP JUMPDEST PUSH2 0x1498 DUP2 PUSH2 0x1459 JUMP JUMPDEST DUP5 ADD SWAP2 POP POP SWAP3 SWAP2 POP POP JUMP JUMPDEST PUSH1 0x0 PUSH1 0x40 DUP4 ADD PUSH1 0x0 DUP4 ADD MLOAD PUSH2 0x14BB PUSH1 0x0 DUP7 ADD DUP3 PUSH2 0x1404 JUMP JUMPDEST POP PUSH1 0x20 DUP4 ADD MLOAD DUP5 DUP3 SUB PUSH1 0x20 DUP7 ADD MSTORE PUSH2 0x14D3 DUP3 DUP3 PUSH2 0x146A JUMP JUMPDEST SWAP2 POP POP DUP1 SWAP2 POP POP SWAP3 SWAP2 POP POP JUMP JUMPDEST PUSH1 0x0 PUSH2 0x14EC DUP4 DUP4 PUSH2 0x14A3 JUMP JUMPDEST SWAP1 POP SWAP3 SWAP2 POP POP JUMP JUMPDEST PUSH1 0x0 PUSH1 0x20 DUP3 ADD SWAP1 POP SWAP2 SWAP1 POP JUMP JUMPDEST PUSH1 0x0 PUSH2 0x150C DUP3 PUSH2 0x13D8 JUMP JUMPDEST PUSH2 0x1516 DUP2 DUP6 PUSH2 0x13E3 JUMP JUMPDEST SWAP4 POP DUP4 PUSH1 0x20 DUP3 MUL DUP6 ADD PUSH2 0x1528 DUP6 PUSH2 0x13F4 JUMP JUMPDEST DUP1 PUSH1 0x0 JUMPDEST DUP6 DUP2 LT ISZERO PUSH2 0x1564 JUMPI DUP5 DUP5 SUB DUP10 MSTORE DUP2 MLOAD PUSH2 0x1545 DUP6 DUP3 PUSH2 0x14E0 JUMP JUMPDEST SWAP5 POP PUSH2 0x1550 DUP4 PUSH2 0x14F4 JUMP JUMPDEST SWAP3 POP PUSH1 0x20 DUP11 ADD SWAP10 POP POP PUSH1 0x1 DUP2 ADD SWAP1 POP PUSH2 0x152C JUMP JUMPDEST POP DUP3 SWAP8 POP DUP8 SWAP6 POP POP POP POP POP POP SWAP3 SWAP2 POP POP JUMP JUMPDEST PUSH1 0x0 PUSH1 0x20 DUP3 ADD SWAP1 POP DUP2 DUP2 SUB PUSH1 0x0 DUP4 ADD MSTORE PUSH2 0x1590 DUP2 DUP5 PUSH2 0x1501 JUMP JUMPDEST SWAP1 POP SWAP3 SWAP2 POP POP JUMP JUMPDEST PUSH1 0x0 PUSH1 0x20 DUP3 DUP5 SUB SLT ISZERO PUSH2 0x15AE JUMPI PUSH2 0x15AD PUSH2 0x1358 JUMP JUMPDEST JUMPDEST PUSH1 0x0 PUSH2 0x15BC DUP5 DUP3 DUP6 ADD PUSH2 0x1383 JUMP JUMPDEST SWAP2 POP POP SWAP3 SWAP2 POP POP JUMP JUMPDEST PUSH2 0x15CE DUP2 PUSH2 0x1362 JUMP JUMPDEST DUP3 MSTORE POP POP JUMP JUMPDEST PUSH1 0x0 PUSH1 0x20 DUP3 ADD SWAP1 POP PUSH2 0x15E9 PUSH1 0x0 DUP4 ADD DUP5 PUSH2 0x15C5 JUMP JUMPDEST SWAP3 SWAP2 POP POP JUMP JUMPDEST PUSH1 0x0 DUP1 REVERT JUMPDEST PUSH1 0x0 DUP1 REVERT JUMPDEST PUSH1 0x0 DUP1 REVERT JUMPDEST PUSH1 0x0 DUP1 DUP4 PUSH1 0x1F DUP5 ADD SLT PUSH2 0x1614 JUMPI PUSH2 0x1613 PUSH2 0x15EF JUMP JUMPDEST JUMPDEST DUP3 CALLDATALOAD SWAP1 POP PUSH8 0xFFFFFFFFFFFFFFFF DUP2 GT ISZERO PUSH2 0x1631 JUMPI PUSH2 0x1630 PUSH2 0x15F4 JUMP JUMPDEST JUMPDEST PUSH1 0x20 DUP4 ADD SWAP2 POP DUP4 PUSH1 0x1 DUP3 MUL DUP4 ADD GT ISZERO PUSH2 0x164D JUMPI PUSH2 0x164C PUSH2 0x15F9 JUMP JUMPDEST JUMPDEST SWAP3 POP SWAP3 SWAP1 POP JUMP JUMPDEST PUSH1 0x0 DUP1 DUP4 PUSH1 0x1F DUP5 ADD SLT PUSH2 0x166A JUMPI PUSH2 0x1669 PUSH2 0x15EF JUMP JUMPDEST JUMPDEST DUP3 CALLDATALOAD SWAP1 POP PUSH8 0xFFFFFFFFFFFFFFFF DUP2 GT ISZERO PUSH2 0x1687 JUMPI PUSH2 0x1686 PUSH2 0x15F4 JUMP JUMPDEST JUMPDEST PUSH1 0x20 DUP4 ADD SWAP2 POP DUP4 PUSH1 0x20 DUP3 MUL DUP4 ADD GT ISZERO PUSH2 0x16A3 JUMPI PUSH2 0x16A2 PUSH2 0x15F9 JUMP JUMPDEST JUMPDEST SWAP3 POP SWAP3 SWAP1 POP JUMP JUMPDEST PUSH1 0x0 DUP1 PUSH1 0x0 DUP1 PUSH1 0x0 DUP1 PUSH1 0x0 PUSH1 0x80 DUP9 DUP11 SUB SLT ISZERO PUSH2 0x16C9 JUMPI PUSH2 0x16C8 PUSH2 0x1358 JUMP JUMPDEST JUMPDEST PUSH1 0x0 DUP9 ADD CALLDATALOAD PUSH8 0xFFFFFFFFFFFFFFFF DUP2 GT ISZERO PUSH2 0x16E7 JUMPI PUSH2 0x16E6 PUSH2 0x135D JUMP JUMPDEST JUMPDEST PUSH2 0x16F3 DUP11 DUP3 DUP12 ADD PUSH2 0x15FE JUMP JUMPDEST SWAP8 POP SWAP8 POP POP PUSH1 0x20 DUP9 ADD CALLDATALOAD PUSH8 0xFFFFFFFFFFFFFFFF DUP2 GT ISZERO PUSH2 0x1716 JUMPI PUSH2 0x1715 PUSH2 0x135D JUMP JUMPDEST JUMPDEST PUSH2 0x1722 DUP11 DUP3 DUP12 ADD PUSH2 0x15FE JUMP JUMPDEST SWAP6 POP SWAP6 POP POP PUSH1 0x40 PUSH2 0x1735 DUP11 DUP3 DUP12 ADD PUSH2 0x1383 JUMP JUMPDEST SWAP4 POP POP PUSH1 0x60 DUP9 ADD CALLDATALOAD PUSH8 0xFFFFFFFFFFFFFFFF DUP2 GT ISZERO PUSH2 0x1756 JUMPI PUSH2 0x1755 PUSH2 0x135D JUMP JUMPDEST JUMPDEST PUSH2 0x1762 DUP11 DUP3 DUP12 ADD PUSH2 0x1654 JUMP JUMPDEST SWAP3 POP SWAP3 POP POP SWAP3 SWAP6 SWAP9 SWAP2 SWAP5 SWAP8 POP SWAP3 SWAP6 POP JUMP JUMPDEST PUSH1 0x0 DUP2 MLOAD SWAP1 POP SWAP2 SWAP1 POP JUMP JUMPDEST PUSH1 0x0 DUP3 DUP3 MSTORE PUSH1 0x20 DUP3 ADD SWAP1 POP SWAP3 SWAP2 POP POP JUMP JUMPDEST PUSH1 0x0 DUP2 SWAP1 POP PUSH1 0x20 DUP3 ADD SWAP1 POP SWAP2 SWAP1 POP JUMP JUMPDEST PUSH1 0x20 DUP3 ADD PUSH1 0x0 DUP3 ADD MLOAD PUSH2 0x17B5 PUSH1 0x0 DUP6 ADD DUP3 PUSH2 0x1404 JUMP JUMPDEST POP POP POP POP JUMP JUMPDEST PUSH1 0x0 PUSH1 0x40 DUP4 ADD PUSH1 0x0 DUP4 ADD MLOAD DUP5 DUP3 SUB PUSH1 0x0 DUP7 ADD MSTORE PUSH2 0x17D8 DUP3 DUP3 PUSH2 0x146A JUMP JUMPDEST SWAP2 POP POP PUSH1 0x20 DUP4 ADD MLOAD PUSH2 0x17ED PUSH1 0x20 DUP7 ADD DUP3 PUSH2 0x179F JUMP JUMPDEST POP DUP1 SWAP2 POP POP SWAP3 SWAP2 POP POP JUMP JUMPDEST PUSH1 0x0 PUSH2 0x1804 DUP4 DUP4 PUSH2 0x17BB JUMP JUMPDEST SWAP1 POP SWAP3 SWAP2 POP POP JUMP JUMPDEST PUSH1 0x0 PUSH1 0x20 DUP3 ADD SWAP1 POP SWAP2 SWAP1 POP JUMP JUMPDEST PUSH1 0x0 PUSH2 0x1824 DUP3 PUSH2 0x1773 JUMP JUMPDEST PUSH2 0x182E DUP2 DUP6 PUSH2 0x177E JUMP JUMPDEST SWAP4 POP DUP4 PUSH1 0x20 DUP3 MUL DUP6 ADD PUSH2 0x1840 DUP6 PUSH2 0x178F JUMP JUMPDEST DUP1 PUSH1 0x0 JUMPDEST DUP6 DUP2 LT ISZERO PUSH2 0x187C JUMPI DUP5 DUP5 SUB DUP10 MSTORE DUP2 MLOAD PUSH2 0x185D DUP6 DUP3 PUSH2 0x17F8 JUMP JUMPDEST SWAP5 POP PUSH2 0x1868 DUP4 PUSH2 0x180C JUMP JUMPDEST SWAP3 POP PUSH1 0x20 DUP11 ADD SWAP10 POP POP PUSH1 0x1 DUP2 ADD SWAP1 POP PUSH2 0x1844 JUMP JUMPDEST POP DUP3 SWAP8 POP DUP8 SWAP6 POP POP POP POP POP POP SWAP3 SWAP2 POP POP JUMP JUMPDEST PUSH1 0x0 PUSH1 0x20 DUP3 ADD SWAP1 POP DUP2 DUP2 SUB PUSH1 0x0 DUP4 ADD MSTORE PUSH2 0x18A8 DUP2 DUP5 PUSH2 0x1819 JUMP JUMPDEST SWAP1 POP SWAP3 SWAP2 POP POP JUMP JUMPDEST PUSH1 0x0 PUSH8 0xFFFFFFFFFFFFFFFF DUP3 AND SWAP1 POP SWAP2 SWAP1 POP JUMP JUMPDEST PUSH2 0x18CD DUP2 PUSH2 0x18B0 JUMP JUMPDEST DUP3 MSTORE POP POP JUMP JUMPDEST PUSH1 0x0 PUSH1 0x20 DUP3 ADD SWAP1 POP PUSH2 0x18E8 PUSH1 0x0 DUP4 ADD DUP5 PUSH2 0x18C4 JUMP JUMPDEST SWAP3 SWAP2 POP POP JUMP JUMPDEST PUSH1 0x0 PUSH1 0xA0 DUP4 ADD PUSH1 0x0 DUP4 ADD MLOAD DUP5 DUP3 SUB PUSH1 0x0 DUP7 ADD MSTORE PUSH2 0x190B DUP3 DUP3 PUSH2 0x146A JUMP JUMPDEST SWAP2 POP POP PUSH1 0x20 DUP4 ADD MLOAD DUP5 DUP3 SUB PUSH1 0x20 DUP7 ADD MSTORE PUSH2 0x1925 DUP3 DUP3 PUSH2 0x146A JUMP JUMPDEST SWAP2 POP POP PUSH1 0x40 DUP4 ADD MLOAD PUSH2 0x193A PUSH1 0x40 DUP7 ADD DUP3 PUSH2 0x1404 JUMP JUMPDEST POP PUSH1 0x60 DUP4 ADD MLOAD PUSH2 0x194D PUSH1 0x60 DUP7 ADD DUP3 PUSH2 0x1404 JUMP JUMPDEST POP PUSH1 0x80 DUP4 ADD MLOAD PUSH2 0x1960 PUSH1 0x80 DUP7 ADD DUP3 PUSH2 0x179F JUMP JUMPDEST POP DUP1 SWAP2 POP POP SWAP3 SWAP2 POP POP JUMP JUMPDEST PUSH1 0x0 PUSH1 0x40 DUP3 ADD SWAP1 POP DUP2 DUP2 SUB PUSH1 0x0 DUP4 ADD MSTORE PUSH2 0x1985 DUP2 DUP6 PUSH2 0x18EE JUMP JUMPDEST SWAP1 POP DUP2 DUP2 SUB PUSH1 0x20 DUP4 ADD MSTORE PUSH2 0x1999 DUP2 DUP5 PUSH2 0x1819 JUMP JUMPDEST SWAP1 POP SWAP4 SWAP3 POP POP POP JUMP JUMPDEST PUSH1 0x0 DUP3 DUP3 MSTORE PUSH1 0x20 DUP3 ADD SWAP1 POP SWAP3 SWAP2 POP POP JUMP JUMPDEST PUSH32 0x46726F6D20696E646578206D75737420626520736D616C6C6572207468656E20 PUSH1 0x0 DUP3 ADD MSTORE PUSH32 0x706F6C6C732E6C656E6774680000000000000000000000000000000000000000 PUSH1 0x20 DUP3 ADD MSTORE POP JUMP JUMPDEST PUSH1 0x0 PUSH2 0x1A0F PUSH1 0x2C DUP4 PUSH2 0x19A2 JUMP JUMPDEST SWAP2 POP PUSH2 0x1A1A DUP3 PUSH2 0x19B3 JUMP JUMPDEST PUSH1 0x40 DUP3 ADD SWAP1 POP SWAP2 SWAP1 POP JUMP JUMPDEST PUSH1 0x0 PUSH1 0x20 DUP3 ADD SWAP1 POP DUP2 DUP2 SUB PUSH1 0x0 DUP4 ADD MSTORE PUSH2 0x1A3E DUP2 PUSH2 0x1A02 JUMP JUMPDEST SWAP1 POP SWAP2 SWAP1 POP JUMP JUMPDEST PUSH32 0x4E487B7100000000000000000000000000000000000000000000000000000000 PUSH1 0x0 MSTORE PUSH1 0x11 PUSH1 0x4 MSTORE PUSH1 0x24 PUSH1 0x0 REVERT JUMPDEST PUSH1 0x0 PUSH2 0x1A7F DUP3 PUSH2 0x1362 JUMP JUMPDEST SWAP2 POP PUSH2 0x1A8A DUP4 PUSH2 0x1362 JUMP JUMPDEST SWAP3 POP DUP3 DUP3 ADD SWAP1 POP DUP1 DUP3 GT ISZERO PUSH2 0x1AA2 JUMPI PUSH2 0x1AA1 PUSH2 0x1A45 JUMP JUMPDEST JUMPDEST SWAP3 SWAP2 POP POP JUMP JUMPDEST PUSH32 0x4E487B7100000000000000000000000000000000000000000000000000000000 PUSH1 0x0 MSTORE PUSH1 0x41 PUSH1 0x4 MSTORE PUSH1 0x24 PUSH1 0x0 REVERT JUMPDEST PUSH32 0x4E487B7100000000000000000000000000000000000000000000000000000000 PUSH1 0x0 MSTORE PUSH1 0x22 PUSH1 0x4 MSTORE PUSH1 0x24 PUSH1 0x0 REVERT JUMPDEST PUSH1 0x0 PUSH1 0x2 DUP3 DIV SWAP1 POP PUSH1 0x1 DUP3 AND DUP1 PUSH2 0x1B1E JUMPI PUSH1 0x7F DUP3 AND SWAP2 POP JUMPDEST PUSH1 0x20 DUP3 LT DUP2 SUB PUSH2 0x1B31 JUMPI PUSH2 0x1B30 PUSH2 0x1AD7 JUMP JUMPDEST JUMPDEST POP SWAP2 SWAP1 POP JUMP JUMPDEST PUSH1 0x0 PUSH2 0x1B42 DUP3 PUSH2 0x1362 JUMP JUMPDEST SWAP2 POP PUSH2 0x1B4D DUP4 PUSH2 0x1362 JUMP JUMPDEST SWAP3 POP DUP3 DUP3 SUB SWAP1 POP DUP2 DUP2 GT ISZERO PUSH2 0x1B65 JUMPI PUSH2 0x1B64 PUSH2 0x1A45 JUMP JUMPDEST JUMPDEST SWAP3 SWAP2 POP POP JUMP JUMPDEST PUSH32 0x4E487B7100000000000000000000000000000000000000000000000000000000 PUSH1 0x0 MSTORE PUSH1 0x32 PUSH1 0x4 MSTORE PUSH1 0x24 PUSH1 0x0 REVERT JUMPDEST PUSH1 0x0 PUSH2 0x1BA5 DUP3 PUSH2 0x1362 JUMP JUMPDEST SWAP2 POP PUSH32 0xFFFFFFFFFFFFFFFFFFFFFFFFFFFFFFFFFFFFFFFFFFFFFFFFFFFFFFFFFFFFFFFF DUP3 SUB PUSH2 0x1BD7 JUMPI PUSH2 0x1BD6 PUSH2 0x1A45 JUMP JUMPDEST JUMPDEST PUSH1 0x1 DUP3 ADD SWAP1 POP SWAP2 SWAP1 POP JUMP JUMPDEST PUSH1 0x0 DUP2 SWAP1 POP SWAP3 SWAP2 POP POP JUMP JUMPDEST PUSH32 0x546865206D6178206C656E67746820666F7220746865207469746C6520697320 PUSH1 0x0 DUP3 ADD MSTORE POP JUMP JUMPDEST PUSH1 0x0 PUSH2 0x1C23 PUSH1 0x20 DUP4 PUSH2 0x1BE2 JUMP JUMPDEST SWAP2 POP PUSH2 0x1C2E DUP3 PUSH2 0x1BED JUMP JUMPDEST PUSH1 0x20 DUP3 ADD SWAP1 POP SWAP2 SWAP1 POP JUMP JUMPDEST PUSH1 0x0 PUSH2 0xFFFF DUP3 AND SWAP1 POP SWAP2 SWAP1 POP JUMP JUMPDEST PUSH1 0x0 DUP2 PUSH1 0xF0 SHL SWAP1 POP SWAP2 SWAP1 POP JUMP JUMPDEST PUSH1 0x0 PUSH2 0x1C5F DUP3 PUSH2 0x1C47 JUMP JUMPDEST SWAP1 POP SWAP2 SWAP1 POP JUMP JUMPDEST PUSH2 0x1C77 PUSH2 0x1C72 DUP3 PUSH2 0x1C39 JUMP JUMPDEST PUSH2 0x1C54 JUMP JUMPDEST DUP3 MSTORE POP POP JUMP JUMPDEST PUSH1 0x0 PUSH2 0x1C88 DUP3 PUSH2 0x1C16 JUMP JUMPDEST SWAP2 POP PUSH2 0x1C94 DUP3 DUP5 PUSH2 0x1C66 JUMP JUMPDEST PUSH1 0x2 DUP3 ADD SWAP2 POP DUP2 SWAP1 POP SWAP3 SWAP2 POP POP JUMP JUMPDEST PUSH1 0x0 PUSH2 0x1CAE DUP3 PUSH2 0x1413 JUMP JUMPDEST PUSH2 0x1CB8 DUP2 DUP6 PUSH2 0x19A2 JUMP JUMPDEST SWAP4 POP PUSH2 0x1CC8 DUP2 DUP6 PUSH1 0x20 DUP7 ADD PUSH2 0x142F JUMP JUMPDEST PUSH2 0x1CD1 DUP2 PUSH2 0x1459 JUMP JUMPDEST DUP5 ADD SWAP2 POP POP SWAP3 SWAP2 POP POP JUMP JUMPDEST PUSH1 0x0 PUSH1 0x20 DUP3 ADD SWAP1 POP DUP2 DUP2 SUB PUSH1 0x0 DUP4 ADD MSTORE PUSH2 0x1CF6 DUP2 DUP5 PUSH2 0x1CA3 JUMP JUMPDEST SWAP1 POP SWAP3 SWAP2 POP POP JUMP JUMPDEST PUSH32 0x546865206D6178206C656E67746820666F722074686520646573637269707469 PUSH1 0x0 DUP3 ADD MSTORE PUSH32 0x6F6E206973200000000000000000000000000000000000000000000000000000 PUSH1 0x20 DUP3 ADD MSTORE POP JUMP JUMPDEST PUSH1 0x0 PUSH2 0x1D5A PUSH1 0x26 DUP4 PUSH2 0x1BE2 JUMP JUMPDEST SWAP2 POP PUSH2 0x1D65 DUP3 PUSH2 0x1CFE JUMP JUMPDEST PUSH1 0x26 DUP3 ADD SWAP1 POP SWAP2 SWAP1 POP JUMP JUMPDEST PUSH1 0x0 PUSH2 0x1D7B DUP3 PUSH2 0x1D4D JUMP JUMPDEST SWAP2 POP PUSH2 0x1D87 DUP3 DUP5 PUSH2 0x1C66 JUMP JUMPDEST PUSH1 0x2 DUP3 ADD SWAP2 POP DUP2 SWAP1 POP SWAP3 SWAP2 POP POP JUMP JUMPDEST PUSH32 0x45787069726174696F6E20646174652068617320746F20626520626967676572 PUSH1 0x0 DUP3 ADD MSTORE PUSH32 0x207468656E2063757272656E742074696D652100000000000000000000000000 PUSH1 0x20 DUP3 ADD MSTORE POP JUMP JUMPDEST PUSH1 0x0 PUSH2 0x1DF2 PUSH1 0x33 DUP4 PUSH2 0x19A2 JUMP JUMPDEST SWAP2 POP PUSH2 0x1DFD DUP3 PUSH2 0x1D96 JUMP JUMPDEST PUSH1 0x40 DUP3 ADD SWAP1 POP SWAP2 SWAP1 POP JUMP JUMPDEST PUSH1 0x0 PUSH1 0x20 DUP3 ADD SWAP1 POP DUP2 DUP2 SUB PUSH1 0x0 DUP4 ADD MSTORE PUSH2 0x1E21 DUP2 PUSH2 0x1DE5 JUMP JUMPDEST SWAP1 POP SWAP2 SWAP1 POP JUMP JUMPDEST PUSH32 0x546865206D6178206E756D626572206F66206F7074696F6E7320000000000000 PUSH1 0x0 DUP3 ADD MSTORE POP JUMP JUMPDEST PUSH1 0x0 PUSH2 0x1E5E PUSH1 0x1A DUP4 PUSH2 0x1BE2 JUMP JUMPDEST SWAP2 POP PUSH2 0x1E69 DUP3 PUSH2 0x1E28 JUMP JUMPDEST PUSH1 0x1A DUP3 ADD SWAP1 POP SWAP2 SWAP1 POP JUMP JUMPDEST PUSH1 0x0 PUSH2 0x1E7F DUP3 PUSH2 0x1E51 JUMP JUMPDEST SWAP2 POP PUSH2 0x1E8B DUP3 DUP5 PUSH2 0x1C66 JUMP JUMPDEST PUSH1 0x2 DUP3 ADD SWAP2 POP DUP2 SWAP1 POP SWAP3 SWAP2 POP POP JUMP JUMPDEST PUSH1 0x0 DUP1 REVERT JUMPDEST PUSH1 0x0 DUP1 REVERT JUMPDEST PUSH1 0x0 DUP1 REVERT JUMPDEST PUSH1 0x0 DUP1 DUP4 CALLDATALOAD PUSH1 0x1 PUSH1 0x20 SUB DUP5 CALLDATASIZE SUB SUB DUP2 SLT PUSH2 0x1EC6 JUMPI PUSH2 0x1EC5 PUSH2 0x1E9A JUMP JUMPDEST JUMPDEST DUP1 DUP5 ADD SWAP3 POP DUP3 CALLDATALOAD SWAP2 POP PUSH8 0xFFFFFFFFFFFFFFFF DUP3 GT ISZERO PUSH2 0x1EE8 JUMPI PUSH2 0x1EE7 PUSH2 0x1E9F JUMP JUMPDEST JUMPDEST PUSH1 0x20 DUP4 ADD SWAP3 POP PUSH1 0x1 DUP3 MUL CALLDATASIZE SUB DUP4 SGT ISZERO PUSH2 0x1F04 JUMPI PUSH2 0x1F03 PUSH2 0x1EA4 JUMP JUMPDEST JUMPDEST POP SWAP3 POP SWAP3 SWAP1 POP JUMP JUMPDEST PUSH32 0x546865206D6178206C656E67746820666F7220616E206F7074696F6E20697320 PUSH1 0x0 DUP3 ADD MSTORE POP JUMP JUMPDEST PUSH1 0x0 PUSH2 0x1F42 PUSH1 0x20 DUP4 PUSH2 0x1BE2 JUMP JUMPDEST SWAP2 POP PUSH2 0x1F4D DUP3 PUSH2 0x1F0C JUMP JUMPDEST PUSH1 0x20 DUP3 ADD SWAP1 POP SWAP2 SWAP1 POP JUMP JUMPDEST PUSH1 0x0 PUSH2 0x1F63 DUP3 PUSH2 0x1F35 JUMP JUMPDEST SWAP2 POP PUSH2 0x1F6F DUP3 DUP5 PUSH2 0x1C66 JUMP JUMPDEST PUSH1 0x2 DUP3 ADD SWAP2 POP DUP2 SWAP1 POP SWAP3 SWAP2 POP POP JUMP JUMPDEST PUSH1 0x0 DUP2 SWAP1 POP DUP2 PUSH1 0x0 MSTORE PUSH1 0x20 PUSH1 0x0 KECCAK256 SWAP1 POP SWAP2 SWAP1 POP JUMP JUMPDEST PUSH1 0x0 PUSH1 0x20 PUSH1 0x1F DUP4 ADD DIV SWAP1 POP SWAP2 SWAP1 POP JUMP JUMPDEST PUSH1 0x0 DUP3 DUP3 SHL SWAP1 POP SWAP3 SWAP2 POP POP JUMP JUMPDEST PUSH1 0x0 PUSH1 0x8 DUP4 MUL PUSH2 0x1FE0 PUSH32 0xFFFFFFFFFFFFFFFFFFFFFFFFFFFFFFFFFFFFFFFFFFFFFFFFFFFFFFFFFFFFFFFF DUP3 PUSH2 0x1FA3 JUMP JUMPDEST PUSH2 0x1FEA DUP7 DUP4 PUSH2 0x1FA3 JUMP JUMPDEST SWAP6 POP DUP1 NOT DUP5 AND SWAP4 POP DUP1 DUP7 AND DUP5 OR SWAP3 POP POP POP SWAP4 SWAP3 POP POP POP JUMP JUMPDEST PUSH1 0x0 DUP2 SWAP1 POP SWAP2 SWAP1 POP JUMP JUMPDEST PUSH1 0x0 PUSH2 0x2027 PUSH2 0x2022 PUSH2 0x201D DUP5 PUSH2 0x1362 JUMP JUMPDEST PUSH2 0x2002 JUMP JUMPDEST PUSH2 0x1362 JUMP JUMPDEST SWAP1 POP SWAP2 SWAP1 POP JUMP JUMPDEST PUSH1 0x0 DUP2 SWAP1 POP SWAP2 SWAP1 POP JUMP JUMPDEST PUSH2 0x2041 DUP4 PUSH2 0x200C JUMP JUMPDEST PUSH2 0x2055 PUSH2 0x204D DUP3 PUSH2 0x202E JUMP JUMPDEST DUP5 DUP5 SLOAD PUSH2 0x1FB0 JUMP JUMPDEST DUP3 SSTORE POP POP POP POP JUMP JUMPDEST PUSH1 0x0 SWAP1 JUMP JUMPDEST PUSH2 0x206A PUSH2 0x205D JUMP JUMPDEST PUSH2 0x2075 DUP2 DUP5 DUP5 PUSH2 0x2038 JUMP JUMPDEST POP POP POP JUMP JUMPDEST JUMPDEST DUP2 DUP2 LT ISZERO PUSH2 0x2099 JUMPI PUSH2 0x208E PUSH1 0x0 DUP3 PUSH2 0x2062 JUMP JUMPDEST PUSH1 0x1 DUP2 ADD SWAP1 POP PUSH2 0x207B JUMP JUMPDEST POP POP JUMP JUMPDEST PUSH1 0x1F DUP3 GT ISZERO PUSH2 0x20DE JUMPI PUSH2 0x20AF DUP2 PUSH2 0x1F7E JUMP JUMPDEST PUSH2 0x20B8 DUP5 PUSH2 0x1F93 JUMP JUMPDEST DUP2 ADD PUSH1 0x20 DUP6 LT ISZERO PUSH2 0x20C7 JUMPI DUP2 SWAP1 POP JUMPDEST PUSH2 0x20DB PUSH2 0x20D3 DUP6 PUSH2 0x1F93 JUMP JUMPDEST DUP4 ADD DUP3 PUSH2 0x207A JUMP JUMPDEST POP POP JUMPDEST POP POP POP JUMP JUMPDEST PUSH1 0x0 DUP3 DUP3 SHR SWAP1 POP SWAP3 SWAP2 POP POP JUMP JUMPDEST PUSH1 0x0 PUSH2 0x2101 PUSH1 0x0 NOT DUP5 PUSH1 0x8 MUL PUSH2 0x20E3 JUMP JUMPDEST NOT DUP1 DUP4 AND SWAP2 POP POP SWAP3 SWAP2 POP POP JUMP JUMPDEST PUSH1 0x0 PUSH2 0x211A DUP4 DUP4 PUSH2 0x20F0 JUMP JUMPDEST SWAP2 POP DUP3 PUSH1 0x2 MUL DUP3 OR SWAP1 POP SWAP3 SWAP2 POP POP JUMP JUMPDEST PUSH2 0x2133 DUP3 PUSH2 0x1413 JUMP JUMPDEST PUSH8 0xFFFFFFFFFFFFFFFF DUP2 GT ISZERO PUSH2 0x214C JUMPI PUSH2 0x214B PUSH2 0x1AA8 JUMP JUMPDEST JUMPDEST PUSH2 0x2156 DUP3 SLOAD PUSH2 0x1B06 JUMP JUMPDEST PUSH2 0x2161 DUP3 DUP3 DUP6 PUSH2 0x209D JUMP JUMPDEST PUSH1 0x0 PUSH1 0x20 SWAP1 POP PUSH1 0x1F DUP4 GT PUSH1 0x1 DUP2 EQ PUSH2 0x2194 JUMPI PUSH1 0x0 DUP5 ISZERO PUSH2 0x2182 JUMPI DUP3 DUP8 ADD MLOAD SWAP1 POP JUMPDEST PUSH2 0x218C DUP6 DUP3 PUSH2 0x210E JUMP JUMPDEST DUP7 SSTORE POP PUSH2 0x21F4 JUMP JUMPDEST PUSH1 0x1F NOT DUP5 AND PUSH2 0x21A2 DUP7 PUSH2 0x1F7E JUMP JUMPDEST PUSH1 0x0 JUMPDEST DUP3 DUP2 LT ISZERO PUSH2 0x21CA JUMPI DUP5 DUP10 ADD MLOAD DUP3 SSTORE PUSH1 0x1 DUP3 ADD SWAP2 POP PUSH1 0x20 DUP6 ADD SWAP5 POP PUSH1 0x20 DUP2 ADD SWAP1 POP PUSH2 0x21A5 JUMP JUMPDEST DUP7 DUP4 LT ISZERO PUSH2 0x21E7 JUMPI DUP5 DUP10 ADD MLOAD PUSH2 0x21E3 PUSH1 0x1F DUP10 AND DUP3 PUSH2 0x20F0 JUMP JUMPDEST DUP4 SSTORE POP JUMPDEST PUSH1 0x1 PUSH1 0x2 DUP9 MUL ADD DUP9 SSTORE POP POP POP JUMPDEST POP POP POP POP POP POP JUMP JUMPDEST PUSH1 0x0 PUSH2 0x2207 DUP3 PUSH2 0x1C39 JUMP JUMPDEST SWAP2 POP PUSH2 0xFFFF DUP3 SUB PUSH2 0x221B JUMPI PUSH2 0x221A PUSH2 0x1A45 JUMP JUMPDEST JUMPDEST PUSH1 0x1 DUP3 ADD SWAP1 POP SWAP2 SWAP1 POP JUMP JUMPDEST PUSH32 0x5468697320757365722068617320616C726561647920766F7465642100000000 PUSH1 0x0 DUP3 ADD MSTORE POP JUMP JUMPDEST PUSH1 0x0 PUSH2 0x225C PUSH1 0x1C DUP4 PUSH2 0x19A2 JUMP JUMPDEST SWAP2 POP PUSH2 0x2267 DUP3 PUSH2 0x2226 JUMP JUMPDEST PUSH1 0x20 DUP3 ADD SWAP1 POP SWAP2 SWAP1 POP JUMP JUMPDEST PUSH1 0x0 PUSH1 0x20 DUP3 ADD SWAP1 POP DUP2 DUP2 SUB PUSH1 0x0 DUP4 ADD MSTORE PUSH2 0x228B DUP2 PUSH2 0x224F JUMP JUMPDEST SWAP1 POP SWAP2 SWAP1 POP JUMP JUMPDEST PUSH32 0x5468697320706F6C6C20646F6573206E6F742065786973742100000000000000 PUSH1 0x0 DUP3 ADD MSTORE POP JUMP JUMPDEST PUSH1 0x0 PUSH2 0x22C8 PUSH1 0x19 DUP4 PUSH2 0x19A2 JUMP JUMPDEST SWAP2 POP PUSH2 0x22D3 DUP3 PUSH2 0x2292 JUMP JUMPDEST PUSH1 0x20 DUP3 ADD SWAP1 POP SWAP2 SWAP1 POP JUMP JUMPDEST PUSH1 0x0 PUSH1 0x20 DUP3 ADD SWAP1 POP DUP2 DUP2 SUB PUSH1 0x0 DUP4 ADD MSTORE PUSH2 0x22F7 DUP2 PUSH2 0x22BB JUMP JUMPDEST SWAP1 POP SWAP2 SWAP1 POP JUMP JUMPDEST PUSH32 0x5468697320706F6C6C2069732065787069726564210000000000000000000000 PUSH1 0x0 DUP3 ADD MSTORE POP JUMP JUMPDEST PUSH1 0x0 PUSH2 0x2334 PUSH1 0x15 DUP4 PUSH2 0x19A2 JUMP JUMPDEST SWAP2 POP PUSH2 0x233F DUP3 PUSH2 0x22FE JUMP JUMPDEST PUSH1 0x20 DUP3 ADD SWAP1 POP SWAP2 SWAP1 POP JUMP JUMPDEST PUSH1 0x0 PUSH1 0x20 DUP3 ADD SWAP1 POP DUP2 DUP2 SUB PUSH1 0x0 DUP4 ADD MSTORE PUSH2 0x2363 DUP2 PUSH2 0x2327 JUMP JUMPDEST SWAP1 POP SWAP2 SWAP1 POP JUMP JUMPDEST PUSH32 0x73656C65637465644F7074696F6E20706F696E747320746F2061206E6F6E2D65 PUSH1 0x0 DUP3 ADD MSTORE PUSH32 0x78697374656E74206F7074696F6E20286F7574206F662072616E676529210000 PUSH1 0x20 DUP3 ADD MSTORE POP JUMP JUMPDEST PUSH1 0x0 PUSH2 0x23C6 PUSH1 0x3E DUP4 PUSH2 0x19A2 JUMP JUMPDEST SWAP2 POP PUSH2 0x23D1 DUP3 PUSH2 0x236A JUMP JUMPDEST PUSH1 0x40 DUP3 ADD SWAP1 POP SWAP2 SWAP1 POP JUMP JUMPDEST PUSH1 0x0 PUSH1 0x20 DUP3 ADD SWAP1 POP DUP2 DUP2 SUB PUSH1 0x0 DUP4 ADD MSTORE PUSH2 0x23F5 DUP2 PUSH2 0x23B9 JUMP JUMPDEST SWAP1 POP SWAP2 SWAP1 POP JUMP JUMPDEST PUSH1 0x0 PUSH2 0x2407 DUP3 PUSH2 0x18B0 JUMP JUMPDEST SWAP2 POP PUSH8 0xFFFFFFFFFFFFFFFF DUP3 SUB PUSH2 0x2421 JUMPI PUSH2 0x2420 PUSH2 0x1A45 JUMP JUMPDEST JUMPDEST PUSH1 0x1 DUP3 ADD SWAP1 POP SWAP2 SWAP1 POP JUMP JUMPDEST PUSH1 0x0 PUSH2 0x2437 DUP3 PUSH2 0x18B0 JUMP JUMPDEST SWAP2 POP PUSH1 0x0 DUP3 SUB PUSH2 0x244A JUMPI PUSH2 0x2449 PUSH2 0x1A45 JUMP JUMPDEST JUMPDEST PUSH1 0x1 DUP3 SUB SWAP1 POP SWAP2 SWAP1 POP JUMP INVALID LOG2 PUSH5 0x6970667358 0x22 SLT KECCAK256 0xCE 0x29 DUP13 0xBD SHL ISZERO STOP SWAP13 ADDRESS SWAP10 0xE7 0xC5 0x5F 0x29 0xC8 0xB8 RETURNDATASIZE GASPRICE PUSH1 0x84 0xB2 0xD8 REVERT 0xE4 0x2A 0xE7 0x21 0xED 0xAB AND SHL 0xEA PUSH5 0x736F6C6343 STOP ADDMOD SGT STOP CALLER "},"methodIdentifiers":{"activePolls(uint256)":"7d66c097","createPoll(string,string,uint256,string[])":"89e63a15","listActive()":"db25b407","listAll(uint256,uint256)":"183643b4","removeExpired()":"c08d611a","viewPoll(uint256)":"c8b61c75","vote(uint256,uint256)":"b384abef"}}}}}