{
  "_format": "hh-sol-artifact-1",
  "contractName": "VotingApp",
  "sourceName": "contracts/VotingApp.sol",
  "abi": [
    {
      "inputs": [],
      "stateMutability": "nonpayable",
      "type": "constructor"
    },
    {
      "inputs": [
        {
          "internalType": "uint256",
          "name": "",
          "type": "uint256"
        }
      ],
      "name": "activePolls",
      "outputs": [
        {
          "internalType": "uint256",
          "name": "",
          "type": "uint256"
        }
      ],
      "stateMutability": "view",
      "type": "function"
    },
    {
      "inputs": [
        {
          "internalType": "string",
          "name": "name",
          "type": "string"
        },
        {
          "internalType": "string",
          "name": "desc",
          "type": "string"
        },
        {
          "internalType": "uint256",
          "name": "end",
          "type": "uint256"
        },
        {
          "internalType": "string[]",
          "name": "options",
          "type": "string[]"
        }
      ],
      "name": "createPoll",
      "outputs": [
        {
          "internalType": "uint256",
          "name": "",
          "type": "uint256"
        }
      ],
      "stateMutability": "payable",
      "type": "function"
    },
    {
      "inputs": [],
      "name": "listActive",
      "outputs": [
        {
          "components": [
            {
              "internalType": "uint256",
              "name": "index",
              "type": "uint256"
            },
            {
              "internalType": "string",
              "name": "name",
              "type": "string"
            }
          ],
          "internalType": "struct VotingApp.IndexWithName[]",
          "name": "",
          "type": "tuple[]"
        }
      ],
      "stateMutability": "view",
      "type": "function"
    },
    {
      "inputs": [
        {
          "internalType": "uint256",
          "name": "from",
          "type": "uint256"
        },
        {
          "internalType": "uint256",
          "name": "limit",
          "type": "uint256"
        }
      ],
      "name": "listAll",
      "outputs": [
        {
          "components": [
            {
              "internalType": "uint256",
              "name": "index",
              "type": "uint256"
            },
            {
              "internalType": "string",
              "name": "name",
              "type": "string"
            }
          ],
          "internalType": "struct VotingApp.IndexWithName[]",
          "name": "",
          "type": "tuple[]"
        }
      ],
      "stateMutability": "view",
      "type": "function"
    },
    {
      "inputs": [],
      "name": "removeExpired",
      "outputs": [
        {
          "internalType": "uint64",
          "name": "",
          "type": "uint64"
        }
      ],
      "stateMutability": "payable",
      "type": "function"
    },
    {
      "inputs": [
        {
          "internalType": "uint256",
          "name": "pollNumber",
          "type": "uint256"
        }
      ],
      "name": "viewPoll",
      "outputs": [
        {
          "components": [
            {
              "internalType": "string",
              "name": "name",
              "type": "string"
            },
            {
              "internalType": "string",
              "name": "description",
              "type": "string"
            },
            {
              "internalType": "uint256",
              "name": "createdTime",
              "type": "uint256"
            },
            {
              "internalType": "uint256",
              "name": "endTime",
              "type": "uint256"
            },
            {
              "components": [
                {
                  "internalType": "uint256",
                  "name": "_value",
                  "type": "uint256"
                }
              ],
              "internalType": "struct Counters.Counter",
              "name": "totalVoteCount",
              "type": "tuple"
            }
          ],
          "internalType": "struct VotingApp.PollView",
          "name": "",
          "type": "tuple"
        },
        {
          "components": [
            {
              "internalType": "string",
              "name": "optionName",
              "type": "string"
            },
            {
              "components": [
                {
                  "internalType": "uint256",
                  "name": "_value",
                  "type": "uint256"
                }
              ],
              "internalType": "struct Counters.Counter",
              "name": "voteCount",
              "type": "tuple"
            }
          ],
          "internalType": "struct VotingApp.Option[]",
          "name": "",
          "type": "tuple[]"
        }
      ],
      "stateMutability": "view",
      "type": "function"
    },
    {
      "inputs": [
        {
          "internalType": "uint256",
          "name": "pollId",
          "type": "uint256"
        },
        {
          "internalType": "uint256",
          "name": "selectedOption",
          "type": "uint256"
        }
      ],
      "name": "vote",
      "outputs": [
        {
          "components": [
            {
              "internalType": "string",
              "name": "optionName",
              "type": "string"
            },
            {
              "components": [
                {
                  "internalType": "uint256",
                  "name": "_value",
                  "type": "uint256"
                }
              ],
              "internalType": "struct Counters.Counter",
              "name": "voteCount",
              "type": "tuple"
            }
          ],
          "internalType": "struct VotingApp.Option[]",
          "name": "",
          "type": "tuple[]"
        }
      ],
      "stateMutability": "payable",
      "type": "function"
    }
  ],
  "bytecode": "0x608060405234801561001057600080fd5b50604051806020016040528060008152506004600082015181600001559050506124d68061003f6000396000f3fe6080604052600436106100705760003560e01c8063b384abef1161004e578063b384abef1461011f578063c08d611a1461014f578063c8b61c751461016d578063db25b407146101ab57610070565b8063183643b4146100755780637d66c097146100b257806389e63a15146100ef575b600080fd5b34801561008157600080fd5b5061009c60048036038101906100979190611373565b6101d6565b6040516100a99190611551565b60405180910390f35b3480156100be57600080fd5b506100d960048036038101906100d49190611573565b6103ca565b6040516100e691906115af565b60405180910390f35b61010960048036038101906101049190611685565b6103ee565b60405161011691906115af565b60405180910390f35b61013960048036038101906101349190611373565b61085b565b6040516101469190611869565b60405180910390f35b610157610b9b565b60405161016491906118ae565b60405180910390f35b34801561017957600080fd5b50610194600480360381019061018f9190611573565b610c7f565b6040516101a2929190611946565b60405180910390f35b3480156101b757600080fd5b506101c0611006565b6040516101cd9190611551565b60405180910390f35b60606101e26004611178565b831115610224576040517f08c379a000000000000000000000000000000000000000000000000000000000815260040161021b90611a00565b60405180910390fd5b60008290506102336004611178565b838561023f9190611a4f565b11156102525761024f6004611178565b90505b60008167ffffffffffffffff81111561026e5761026d611a83565b5b6040519080825280602002602001820160405280156102a757816020015b6102946112d1565b81526020019060019003908161028c5790505b50905060008590505b828110156103be5760405180604001604052806001836102d09190611a4f565b81526020016000806001856102e59190611a4f565b8152602001908152602001600020600001805461030190611ae1565b80601f016020809104026020016040519081016040528092919081815260200182805461032d90611ae1565b801561037a5780601f1061034f5761010080835404028352916020019161037a565b820191906000526020600020905b81548152906001019060200180831161035d57829003601f168201915b505050505081525082878361038f9190611b12565b815181106103a05761039f611b46565b5b602002602001018190525080806103b690611b75565b9150506102b0565b50809250505092915050565b600181815481106103da57600080fd5b906000526020600020016000915090505481565b6000602061ffff16888890501061043a576040517f08c379a000000000000000000000000000000000000000000000000000000000815260040161043190611c09565b60405180910390fd5b61010061ffff168686905010610485576040517f08c379a000000000000000000000000000000000000000000000000000000000815260040161047c90611c75565b60405180910390fd5b4284116104c7576040517f08c379a00000000000000000000000000000000000000000000000000000000081526004016104be90611d07565b60405180910390fd5b601061ffff168383905010610511576040517f08c379a000000000000000000000000000000000000000000000000000000000815260040161050890611d99565b60405180910390fd5b61051b6004611186565b60006040518060c001604052808a8a8080601f016020809104026020016040519081016040528093929190818152602001838380828437600081840152601f19601f82011690508083019250505050505050815260200188888080601f016020809104026020016040519081016040528093929190818152602001838380828437600081840152601f19601f8201169050808301925050505050505081526020014281526020018681526020016040518060200160405280600081525081526020016105e76004611178565b815250905060005b848490508161ffff16101561078957608061ffff1685858361ffff1681811061061b5761061a611b46565b5b905060200281019061062d9190611dc8565b90501061066f576040517f08c379a000000000000000000000000000000000000000000000000000000000815260040161066690611e9d565b60405180910390fd5b6000604051806040016040528087878561ffff1681811061069357610692611b46565b5b90506020028101906106a59190611dc8565b8080601f016020809104026020016040519081016040528093929190818152602001838380828437600081840152601f19601f820116905080830192505050505050508152602001604051806020016040528060008152508152509050600260006107106004611178565b8152602001908152602001600020819080600181540180825580915050600190039060005260206000209060020201600090919091909150600082015181600001908161075d9190612069565b50602082015181600101600082015181600001555050505050808061078190612149565b9150506105ef565b50806000806107986004611178565b815260200190815260200160002060008201518160000190816107bb9190612069565b5060208201518160010190816107d19190612069565b50604082015181600201556060820151816003015560808201518160040160008201518160000155505060a0820151816005015590505060016108146004611178565b9080600181540180825580915050600190039060005260206000200160009091909190915055610842610b9b565b5061084d6004611178565b915050979650505050505050565b6060610867338461119c565b156108a7576040517f08c379a000000000000000000000000000000000000000000000000000000000815260040161089e906121bf565b60405180910390fd5b6108b16004611178565b8311156108f3576040517f08c379a00000000000000000000000000000000000000000000000000000000081526004016108ea9061222b565b60405180910390fd5b42600080858152602001908152602001600020600301541161094a576040517f08c379a000000000000000000000000000000000000000000000000000000000815260040161094190612297565b60405180910390fd5b816002600085815260200190815260200160002080549050116109a2576040517f08c379a000000000000000000000000000000000000000000000000000000000815260040161099990612329565b60405180910390fd5b60036000848152602001908152602001600020339080600181540180825580915050600190039060005260206000200160009091909190916101000a81548173ffffffffffffffffffffffffffffffffffffffff021916908373ffffffffffffffffffffffffffffffffffffffff160217905550610a54600260008581526020019081526020016000208381548110610a3e57610a3d611b46565b5b9060005260206000209060020201600101611186565b610a71600080858152602001908152602001600020600401611186565b610a79610b9b565b5060026000848152602001908152602001600020805480602002602001604051908101604052809291908181526020016000905b82821015610b8f5783829060005260206000209060020201604051806040016040529081600082018054610ae090611ae1565b80601f0160208091040260200160405190810160405280929190818152602001828054610b0c90611ae1565b8015610b595780601f10610b2e57610100808354040283529160200191610b59565b820191906000526020600020905b815481529060010190602001808311610b3c57829003601f168201915b50505050508152602001600182016040518060200160405290816000820154815250508152505081526020019060010190610aad565b50505050905092915050565b6000806000905060005b6001805490508167ffffffffffffffff161015610c7757600060018267ffffffffffffffff1681548110610bdc57610bdb611b46565b5b9060005260206000200154905042600080838152602001908152602001600020600301541015610c635760018267ffffffffffffffff1681548110610c2457610c23611b46565b5b90600052602060002001600090558280610c3d90612349565b93505060008267ffffffffffffffff161115610c62578180610c5e90612379565b9250505b5b508080610c6f90612349565b915050610ba5565b508091505090565b610c876112eb565b6060610c936004611178565b831115610cd5576040517f08c379a0000000000000000000000000000000000000000000000000000000008152600401610ccc90612414565b60405180910390fd5b60008303610d18576040517f08c379a0000000000000000000000000000000000000000000000000000000008152600401610d0f90612480565b60405180910390fd5b610d206112eb565b6000808581526020019081526020016000206000018054610d4090611ae1565b80601f0160208091040260200160405190810160405280929190818152602001828054610d6c90611ae1565b8015610db95780601f10610d8e57610100808354040283529160200191610db9565b820191906000526020600020905b815481529060010190602001808311610d9c57829003601f168201915b505050505081600001819052506000808581526020019081526020016000206001018054610de690611ae1565b80601f0160208091040260200160405190810160405280929190818152602001828054610e1290611ae1565b8015610e5f5780601f10610e3457610100808354040283529160200191610e5f565b820191906000526020600020905b815481529060010190602001808311610e4257829003601f168201915b5050505050816020018190525060008085815260200190815260200160002060020154816040018181525050600080858152602001908152602001600020600301548160600181815250506000808581526020019081526020016000206004016040518060200160405290816000820154815250508160800181905250600060026000868152602001908152602001600020805480602002602001604051908101604052809291908181526020016000905b82821015610ff35783829060005260206000209060020201604051806040016040529081600082018054610f4490611ae1565b80601f0160208091040260200160405190810160405280929190818152602001828054610f7090611ae1565b8015610fbd5780601f10610f9257610100808354040283529160200191610fbd565b820191906000526020600020905b815481529060010190602001808311610fa057829003601f168201915b50505050508152602001600182016040518060200160405290816000820154815250508152505081526020019060010190610f11565b5050505090508181935093505050915091565b6060600060018054905067ffffffffffffffff81111561102957611028611a83565b5b60405190808252806020026020018201604052801561106257816020015b61104f6112d1565b8152602001906001900390816110475790505b50905060005b60018054905081101561117057604051806040016040528060018361108d9190611a4f565b81526020016000806001856110a29190611a4f565b815260200190815260200160002060000180546110be90611ae1565b80601f01602080910402602001604051908101604052809291908181526020018280546110ea90611ae1565b80156111375780601f1061110c57610100808354040283529160200191611137565b820191906000526020600020905b81548152906001019060200180831161111a57829003601f168201915b505050505081525082828151811061115257611151611b46565b5b6020026020010181905250808061116890611b75565b915050611068565b508091505090565b600081600001549050919050565b6001816000016000828254019250508190555050565b6000806003600084815260200190815260200160002080548060200260200160405190810160405280929190818152602001828054801561123257602002820191906000526020600020905b8160009054906101000a900473ffffffffffffffffffffffffffffffffffffffff1673ffffffffffffffffffffffffffffffffffffffff16815260200190600101908083116111e8575b5050505050905060005b81518167ffffffffffffffff1610156112c4578473ffffffffffffffffffffffffffffffffffffffff16828267ffffffffffffffff168151811061128357611282611b46565b5b602002602001015173ffffffffffffffffffffffffffffffffffffffff16036112b1576001925050506112cb565b80806112bc90612349565b91505061123c565b5060009150505b92915050565b604051806040016040528060008152602001606081525090565b6040518060a001604052806060815260200160608152602001600081526020016000815260200161131a611320565b81525090565b6040518060200160405280600081525090565b600080fd5b600080fd5b6000819050919050565b6113508161133d565b811461135b57600080fd5b50565b60008135905061136d81611347565b92915050565b6000806040838503121561138a57611389611333565b5b60006113988582860161135e565b92505060206113a98582860161135e565b9150509250929050565b600081519050919050565b600082825260208201905092915050565b6000819050602082019050919050565b6113e88161133d565b82525050565b600081519050919050565b600082825260208201905092915050565b60005b8381101561142857808201518184015260208101905061140d565b60008484015250505050565b6000601f19601f8301169050919050565b6000611450826113ee565b61145a81856113f9565b935061146a81856020860161140a565b61147381611434565b840191505092915050565b600060408301600083015161149660008601826113df565b50602083015184820360208601526114ae8282611445565b9150508091505092915050565b60006114c7838361147e565b905092915050565b6000602082019050919050565b60006114e7826113b3565b6114f181856113be565b935083602082028501611503856113cf565b8060005b8581101561153f578484038952815161152085826114bb565b945061152b836114cf565b925060208a01995050600181019050611507565b50829750879550505050505092915050565b6000602082019050818103600083015261156b81846114dc565b905092915050565b60006020828403121561158957611588611333565b5b60006115978482850161135e565b91505092915050565b6115a98161133d565b82525050565b60006020820190506115c460008301846115a0565b92915050565b600080fd5b600080fd5b600080fd5b60008083601f8401126115ef576115ee6115ca565b5b8235905067ffffffffffffffff81111561160c5761160b6115cf565b5b602083019150836001820283011115611628576116276115d4565b5b9250929050565b60008083601f840112611645576116446115ca565b5b8235905067ffffffffffffffff811115611662576116616115cf565b5b60208301915083602082028301111561167e5761167d6115d4565b5b9250929050565b60008060008060008060006080888a0312156116a4576116a3611333565b5b600088013567ffffffffffffffff8111156116c2576116c1611338565b5b6116ce8a828b016115d9565b9750975050602088013567ffffffffffffffff8111156116f1576116f0611338565b5b6116fd8a828b016115d9565b955095505060406117108a828b0161135e565b935050606088013567ffffffffffffffff81111561173157611730611338565b5b61173d8a828b0161162f565b925092505092959891949750929550565b600081519050919050565b600082825260208201905092915050565b6000819050602082019050919050565b60208201600082015161179060008501826113df565b50505050565b600060408301600083015184820360008601526117b38282611445565b91505060208301516117c8602086018261177a565b508091505092915050565b60006117df8383611796565b905092915050565b6000602082019050919050565b60006117ff8261174e565b6118098185611759565b93508360208202850161181b8561176a565b8060005b85811015611857578484038952815161183885826117d3565b9450611843836117e7565b925060208a0199505060018101905061181f565b50829750879550505050505092915050565b6000602082019050818103600083015261188381846117f4565b905092915050565b600067ffffffffffffffff82169050919050565b6118a88161188b565b82525050565b60006020820190506118c3600083018461189f565b92915050565b600060a08301600083015184820360008601526118e68282611445565b915050602083015184820360208601526119008282611445565b915050604083015161191560408601826113df565b50606083015161192860608601826113df565b50608083015161193b608086018261177a565b508091505092915050565b6000604082019050818103600083015261196081856118c9565b9050818103602083015261197481846117f4565b90509392505050565b600082825260208201905092915050565b7f46726f6d20696e646578206d75737420626520736d616c6c6572207468656e2060008201527f706f6c6c732e6c656e6774680000000000000000000000000000000000000000602082015250565b60006119ea602c8361197d565b91506119f58261198e565b604082019050919050565b60006020820190508181036000830152611a19816119dd565b9050919050565b7f4e487b7100000000000000000000000000000000000000000000000000000000600052601160045260246000fd5b6000611a5a8261133d565b9150611a658361133d565b9250828201905080821115611a7d57611a7c611a20565b5b92915050565b7f4e487b7100000000000000000000000000000000000000000000000000000000600052604160045260246000fd5b7f4e487b7100000000000000000000000000000000000000000000000000000000600052602260045260246000fd5b60006002820490506001821680611af957607f821691505b602082108103611b0c57611b0b611ab2565b5b50919050565b6000611b1d8261133d565b9150611b288361133d565b9250828203905081811115611b4057611b3f611a20565b5b92915050565b7f4e487b7100000000000000000000000000000000000000000000000000000000600052603260045260246000fd5b6000611b808261133d565b91507fffffffffffffffffffffffffffffffffffffffffffffffffffffffffffffffff8203611bb257611bb1611a20565b5b600182019050919050565b7f546865207469746c6520697320746f6f206c6f6e672100000000000000000000600082015250565b6000611bf360168361197d565b9150611bfe82611bbd565b602082019050919050565b60006020820190508181036000830152611c2281611be6565b9050919050565b7f546865206465736372697074696f6e20697320746f6f206c6f6e672100000000600082015250565b6000611c5f601c8361197d565b9150611c6a82611c29565b602082019050919050565b60006020820190508181036000830152611c8e81611c52565b9050919050565b7f45787069726174696f6e20646174652068617320746f2062652062696767657260008201527f207468656e2063757272656e742074696d652100000000000000000000000000602082015250565b6000611cf160338361197d565b9150611cfc82611c95565b604082019050919050565b60006020820190508181036000830152611d2081611ce4565b9050919050565b7f546f6f206d616e79206f7074696f6e7320776572652070726f7669646564206660008201527f6f722074686520706f6c6c210000000000000000000000000000000000000000602082015250565b6000611d83602c8361197d565b9150611d8e82611d27565b604082019050919050565b60006020820190508181036000830152611db281611d76565b9050919050565b600080fd5b600080fd5b600080fd5b60008083356001602003843603038112611de557611de4611db9565b5b80840192508235915067ffffffffffffffff821115611e0757611e06611dbe565b5b602083019250600182023603831315611e2357611e22611dc3565b5b509250929050565b7f536f6d65206f6620746865206f7074696f6e20737472696e6720697320746f6f60008201527f206c6f6e67210000000000000000000000000000000000000000000000000000602082015250565b6000611e8760268361197d565b9150611e9282611e2b565b604082019050919050565b60006020820190508181036000830152611eb681611e7a565b9050919050565b60008190508160005260206000209050919050565b60006020601f8301049050919050565b600082821b905092915050565b600060088302611f1f7fffffffffffffffffffffffffffffffffffffffffffffffffffffffffffffffff82611ee2565b611f298683611ee2565b95508019841693508086168417925050509392505050565b6000819050919050565b6000611f66611f61611f5c8461133d565b611f41565b61133d565b9050919050565b6000819050919050565b611f8083611f4b565b611f94611f8c82611f6d565b848454611eef565b825550505050565b600090565b611fa9611f9c565b611fb4818484611f77565b505050565b5b81811015611fd857611fcd600082611fa1565b600181019050611fba565b5050565b601f82111561201d57611fee81611ebd565b611ff784611ed2565b81016020851015612006578190505b61201a61201285611ed2565b830182611fb9565b50505b505050565b600082821c905092915050565b600061204060001984600802612022565b1980831691505092915050565b6000612059838361202f565b9150826002028217905092915050565b612072826113ee565b67ffffffffffffffff81111561208b5761208a611a83565b5b6120958254611ae1565b6120a0828285611fdc565b600060209050601f8311600181146120d357600084156120c1578287015190505b6120cb858261204d565b865550612133565b601f1984166120e186611ebd565b60005b82811015612109578489015182556001820191506020850194506020810190506120e4565b868310156121265784890151612122601f89168261202f565b8355505b6001600288020188555050505b505050505050565b600061ffff82169050919050565b60006121548261213b565b915061ffff820361216857612167611a20565b5b600182019050919050565b7f5468697320757365722068617320616c726561647920766f7465642100000000600082015250565b60006121a9601c8361197d565b91506121b482612173565b602082019050919050565b600060208201905081810360008301526121d88161219c565b9050919050565b7f5468697320706f6c6c20646f6573206e6f742065786973742100000000000000600082015250565b600061221560198361197d565b9150612220826121df565b602082019050919050565b6000602082019050818103600083015261224481612208565b9050919050565b7f5468697320706f6c6c2069732065787069726564210000000000000000000000600082015250565b600061228160158361197d565b915061228c8261224b565b602082019050919050565b600060208201905081810360008301526122b081612274565b9050919050565b7f73656c65637465644f7074696f6e20706f696e747320746f2061206e6f6e2d6560008201527f78697374656e74206f7074696f6e20286f7574206f662072616e676529210000602082015250565b6000612313603e8361197d565b915061231e826122b7565b604082019050919050565b6000602082019050818103600083015261234281612306565b9050919050565b60006123548261188b565b915067ffffffffffffffff820361236e5761236d611a20565b5b600182019050919050565b60006123848261188b565b91506000820361239757612396611a20565b5b600182039050919050565b7f5468617420706f6c6c20646f6573206e6f7420657869737420286f75742d6f6660008201527f2d72616e67652921000000000000000000000000000000000000000000000000602082015250565b60006123fe60288361197d565b9150612409826123a2565b604082019050919050565b6000602082019050818103600083015261242d816123f1565b9050919050565b7f706f6c6c4e756d6265722063616e277420626520300000000000000000000000600082015250565b600061246a60158361197d565b915061247582612434565b602082019050919050565b600060208201905081810360008301526124998161245d565b905091905056fea26469706673582212209cc8f195e2262c9632a56d8f1f530f63e4b318cf83e8386e1f04403831b4309064736f6c63430008130033",
  "linkReferences": {},
  "deployedLinkReferences": {}
}